:10D316009009F2E5BFF012D79412D7F112D7E112B5
:10D32600D79E12D7A812D7B212D7C612D76312D772
:10D33600E512D7E912D52A12D5CA12D5EC12D7BCF6
:10D3460012D77012D7ED12D7019009F2E0FF8FBF06
:01D3560022B4
:0AD7940075BF0053D9BF75D90022FC
:01D7F1002215
:04D7E10075DE0822C7
:0AD79E0075A46C75F17F75D4FF22AD
:0AD7A80075A5C975F2FB75D5FC22CA
:0AD7B20075A60175F30175D6FF227C
:07D7C60075E24075E301224A
:0DD7630075BC2875BA1F75BB0F43E8802206
:04D7E50043B2032226
:04D7E90075A90322F9
:10D52A009009F3E588F05388AF758CE1758DFC7529
:10D53A008B189009F3E0FFEF5440FF9009F3E0FEE7
:0AD54A00EE5410FEEE4FFFEF428892
:01D5540022B4
:10D5CA00E5C85404FF9009F4EFF053C8FB75CDFF8A
:10D5DA0075CCB075CBFF75CAB09009F4E0FFEF4285
:01D5EA00C878
:01D5EB00221D
:10D5EC00E5915404FF9009F5EFF05391FB7595FF0D
:10D5FC007594D87593FF7592D89009F5E0FFEF42BA
:01D60C00918C
:01D60D0022FA
:0AD7BC00758E02758911438845221D
:0DD7700075AC4175B5FF75B4CC43D21022E5
:04D7ED0075E46C2251
:10D7010075E68875F68075A8AA75B82175E7027562
:03D71100F70222FA
:0300000002C82B08
:0EC82B00787FE4F6D8FD758143C20102C8741F
:03400000000000BD
:01D7F2000036
:10D3D000496E697469616C697A652E2E2E00506CF5
:10D3E000656173652E2E2E00436F6E6E656374202B
:10D3F000446576696365005468656E20506F776593
:0AD4000072204F6E2121212121002E
:10D177009009F6EFF09009F6E0FFEF30E10100903B
:10D1870009F6E0FFEF30E201009009F6E0FFEF302B
:10D19700E501009009F6E0FFEF30E30312D6A39014
:10D1A70009F6E0FFEF30E40312CA579009F6E0FFF3
:08D1B700EF30E50312D7F3226B
:10979A0012D31612D1BF12D40A12CD4612CEE31238
:1097AA00C20212D55512A89512CE807F0012C5406A
:1097BA007F0112CDB17BFF7A6779F57D007C007F4E
:1097CA00007E001280BC7BFF7AD379D07D2D7C008D
:1097DA007F147E0012BE6312A32612AC3712D395F1
:1097EA0012C2A99008E8E0FEA3E0FFEF20E203021C
:1097FA00987D9007ADE0FEA3E0FFEF64014E701C78
:10980A009008E7E0FFEF4402FF9008E7EFF07BFFE4
:10981A007AAD79567D0112CCD802993A9007ADE01B
:10982A00FEA3E0FFEF64024E701C9008E7E0FFEF32
:10983A004404FF9008E7EFF07BFF7AAE79677D0179
:10984A0012CCD802993A9007ADE0FEA3E0FFEF648C
:10985A00034E600302993A9008E7E0FFEF4420FFC5
:10986A009008E7EFF07BFF7AAF79787D0112CCD8C8
:10987A0002993A9008E8E0FEA3E0FFEF30E11C907D
:10988A0008E7E0FFEF4408FF9008E7EFF07BFF7A74
:10989A007D79217D0112CCD802993A9008E8E0FE40
:1098AA00A3E0FFEF30E01B9008E7E0FFEF4410FF72
:1098BA009008E7EFF07BFF7AB179947D0112CCD85A
:1098CA00806E9008E8E0FEA3E0FFEF30E325900801
:1098DA00E7E0FFEF4420FF9008E7EFF0E59154FB43
:1098EA00FFEF4404F5917BFF7AB779D37D0112CC5F
:1098FA00D8803D7F0012C5407BFF7AD379DE7D0A8E
:10990A007C007F0A7E0012BE637BFF7AD379E87DF2
:10991A00197C007F0A7E0012BE637BFF7AD379F737
:10992A007D287C007F0A7E0012BE6312A32680FE79
:10993A009008E6E0FEA3E0FF12D177AF12EF75F0D0
:10994A0003A42413F8860308E6FA08E6F989828A4A
:09995A00837F021263D680D8223B
:10D1BF007542007543009008E6E4F0A3E4F0900890
:10D1CF00E8E4F0A3E4F09008DAE4F0A3E4F09008C8
:10D1DF00DCE4F0A3E4F09008DEE4F0A3E4F09008C0
:10D1EF00E0E4F0A3E4F09008E2E4F0A3E4F09008A8
:07D1FF00E4E4F0A3E4F022D8
:08C9D2009009BAEEF0A3EFF0AA
:10C9DA009009BCE4F09009BAE0FEA3E0FFE5432F1A
:10C9EA00FFE5423EFE9009BDEEF0A3EFF09009BAD2
:10C9FA00E0FEA3E0FF9009BDE0FCA3E0FDC3ED9FCC
:10CA0A00EC9E50069009BC7401F09009BCE0FFEF5F
:10CA1A00B401259009BAE0FEA3E0FFC374FF9FFFAB
:10CA2A0074FF9EFED3E5439FE5429E4004000080CA
:10CA3A00D99009BCE4F080D29009BDE0FEA3E0FFE2
:0CCA4A00C3E5439FE5429E40C12280BE30
:01CA560022BD
:03001B0002D12CE3
:10D12C00C0E0C0F0C083C082C0D075D000C000C0C9
:10D13C0001C002C003C004C005C006C007C28F7581
:10D14C008DFC758B180543E5437002054212A5E969
:10D15C00D007D006D005D004D003D002D001D00027
:0BD16C00D0D0D082D083D0F0D0E032D1
:10CD46009007B2E4F09009F7E4F09009F7E0FFEFFE
:10CD5600C39418501E9009F7E0FFEF25E0247FF5F5
:10CD660082E43407F583E4F0A3E4F09009F7E004E5
:10CD7600F080D79007E77401F09007AFE4F09007D2
:10CD86007EE4F09007E37401F09007E47401F07517
:10CD96002900752A0075270075280075220075235D
:0ACDA60000752400752500752600B5
:01CDB0002260
:10AC3700C289C2A800000000000000000000000058
:10AC470000000000000000000000000000000000FD
:10AC570000000000C284E5A454EFFFEF4410F5A400
:10AC6700E5F154EFFFEF4410F5F19007E77401F0B9
:10AC77009007AFE4F0D28DC3E52A9402E52994004A
:10AC870040F5C28C53A4EFE5F154EFFFEF4410F504
:10AC9700F1D2840000000000000000000000000066
:10ACA700000000000000000000000000000000009D
:10ACB700000000C289D2A89007E7E4F09007AF74BC
:10ACC70001F07FB07E0412C9D2C289C2A800000079
:10ACD700000000000000000000000000000000006D
:10ACE70000000000000000000000000000C284E532
:10ACF700A454EFFFEF4410F5A4E5F154EFFFEF4440
:10AD070010F5F19007E7E4F09007AFE4F09009F849
:10AD17007401F09009F8E0FFEFC3941050309009E8
:10AD2700F8E0FFEF25E0247FF582E43407F583E0C0
:10AD3700FEA3E0FFEF4E600E9008E9E0FFEF44044A
:0EAD4700FF9008E9EFF09009F8E004F080C5F5
:01AD550022DB
:03000B0002B6D06A
:10B6D000C0E0C083C082C0D075D000C005C006C025
:10B6E00007C28CC28D9007AFE0FFEF6042E52824CF
:10B6F000FFFFE52734FFFE9007E3E0FDED25E024A2
:10B700007FF582E43407F583EEF0A3EFF09007E3D2
:10B71000E0FFEFB4170A9007AFE4F09007E3E4F01E
:10B720009007E3E004F075270075280002B7C49085
:10B7300007E7E0FFEF707B9007E4E0FFEFD3940FA3
:10B74000403C90077EE004F090077EE0FFEFC3945A
:10B7500014500A758C3D758AB0D28C8067752500AF
:10B760007526009007E47401F090077EE4F09007DE
:10B77000B2E0FFEF54DFFF9007B2EFF08046900792
:10B78000E4E0FFEF25E024B3F582E43407F583E03D
:10B79000FEA3E0FFEF2401F526EE3400F525900727
:10B7A000E4E004F0758C80758A00D28CC2CFD2CAD6
:10B7B0008012752500752605758C80758A00D28CDF
:10B7C000C2CFD2CAD007D006D005D0D0D082D08385
:03B7D000D0E03294
:03002B0002CE19E9
:10CE1900C0E0C083C082C0D075D000C000C007C2C6
:10CE2900CFC3E5249526E5256480F8E52364809839
:10CE3900501AE5227007D284752201802DC28475AB
:10CE490022000524E52470020523801E9007E7E0EF
:10CE5900FFEF6008052AE52A70020529C2CA752371
:10CE690000752400752500752600D007D000D0D0A4
:07CE7900D082D083D0E0322B
:0300030002D2D452
:10D2D400C0E0C083C082C0D075D000C007308427AE
:10D2E40000000000000000000030841B208C10901F
:10D2F40007AFE0FFEF6008758CB1758AE0D28C054A
:10D3040028E52870020527D007D0D0D082D083D05A
:02D31400E03205
:10C8B9009009BFEBF0A3EAF0A3E9F09009C2EDF00B
:10C8C9009007E5E4F0A3E4F09009C3E4F09009C20D
:10C8D900E0FF9009C3E0FEEEC39F50349009BFE02A
:10C8E900FBA3E0FAA3E0F99009C3E0FF75F002EFBA
:10C8F900A4F58285F083126108FFAEF09007E6E0A7
:10C909002FF09007E5E03EF09009C3E004F080BD08
:10C919009007B0E0FEA3E0FF9007E5E0FCA3E0FD8F
:10C92900ED6F7002EC6E60139007E5E0FEA3E0FF87
:0DC939009007B0EEF0A3EFF07F01227F0029
:01C9460022CE
:10CF93009009C4EBF0A3EAF0A3E9F09009C7EDF020
:10CFA3009009C8E4F09009C8E4F09009C7E0FF9045
:10CFB30009C8E0FEEEC39F502B9009C4E0FBA3E039
:10CFC300FAA3E0F99009C8E0FF8F82758300125F2E
:10CFD30080FF8FD3E5D230E1FB53D2FD9009C8E047
:04CFE30004F080C610
:01CFE7002227
:10D4760090081E748DF090081F7401F090082074B7
:10D48600FFF090081FE0FF90081EE0FEEE2FFF90D1
:0DD496000820E0FEEF2EFF900821EFF022AD
:1099630090081E748DF090081F740AF0900807E0A9
:10997300FEA3E0FFEF75F064A4FF9007EBE0FCA308
:10998300E0FDAE05EF2EFF900820EFF0900809E010
:10999300FEA3E0FFEF75F064A4FF9007EDE0FCA3E6
:1099A300E0FDAE05EF2EFF900821EFF0900805E0F3
:1099B300FEA3E0FFEF75F064A4FF9007EFE0FCA3C4
:1099C300E0FDAE05EF2EFF900822EFF0900807E0D0
:1099D300FEA3E0FFEF75F064A4FF9007F1E0FCA3A2
:1099E300E0FDAE05EF2EFF900823EFF0900809E0AD
:1099F300FEA3E0FFEF75F064A4FF9007F3E0FCA380
:109A0300E0FDAE05EF2EFF900824EFF0900805E08F
:109A1300FEA3E0FFEF75F064A4FF9007F5E0FCA35D
:109A2300E0FDAE05EF2EFF900825EFF09007F7E07D
:109A3300FEA3E0FFEF2414FF900826EFF09007F950
:109A4300E0FEA3E0FFEF2414FF900827EFF0900758
:109A5300FDE0FEA3E0FFEF25E025E0FF9007FBE03C
:109A6300FCA3E0FDAE05EE4FFF9007FFE0FCA3E093
:109A7300FDAE05EEC454F0FEEE4FFF900803E0FC8C
:109A8300A3E0FDAE05EEC4333354C0FEEE4FFF90AA
:109A93000828EFF09007E9E0FEA3E0FFEF25E025BB
:109AA300E0FF90080BE0FCA3E0FDAE05EEC454F02C
:109AB300FEEE4FFF900801E0FCA3E0FDAE05EE4F84
:109AC300FF900829EFF090081FE0FF90081EE0FECA
:109AD300EE2FFF900820E0FEEF2EFF900821E0FE1E
:109AE300EF2EFF900822E0FEEF2EFF900823E0FE0A
:109AF300EF2EFF900824E0FEEF2EFF900825E0FEF6
:109B0300EF2EFF900826E0FEEF2EFF900827E0FEE1
:109B1300EF2EFF900828E0FEEF2EFF900829E0FECD
:099B2300EF2EFF90082AEFF0225A
:108F8B00900813E0FFEFD39464400B900807E4F0D4
:108F9B00A37401F08013900813E0FFEFD394645097
:108FAB0008900807E4F0A3E4F0900814E0FFEFD377
:108FBB009464400B900809E4F0A37401F0801390C3
:108FCB000814E0FFEFD394645008900809E4F0A371
:108FDB00E4F0900815E0FFEFD39464400B90080584
:108FEB00E4F0A37401F08013900815E0FFEFD39425
:108FFB00645008900805E4F0A3E4F0900807E0FE45
:10900B00A3E0FF7C007D64126014900813E0FD7CEC
:10901B0000C3ED9FFFEC9EFE9007EBEEF0A3EFF08D
:10902B00900807E0FEA3E0FF7C007D6412601490C3
:10903B000816E0FD7C00C3ED9FFFEC9EFE9007F150
:10904B00EEF0A3EFF0900809E0FEA3E0FF7C007DBB
:10905B0064126014900814E0FD7C00C3ED9FFFECDC
:10906B009EFE9007EDEEF0A3EFF0900809E0FEA353
:10907B00E0FF7C007D64126014900817E0FD7C001B
:10908B00C3ED9FFFEC9EFE9007F3EEF0A3EFF09085
:10909B000805E0FEA3E0FF7C007D641260149008DD
:1090AB0015E0FD7C00C3ED9FFFEC9EFE9007EFEEFD
:1090BB00F0A3EFF0900805E0FEA3E0FF7C007D64D9
:1090CB00126014900818E0FD7C00C3ED9FFFEC9E2E
:1090DB00FE9007F5EEF0A3EFF0900819E0FF7E008D
:1090EB00EF24ECFFEE34FFFE9007F7EEF0A3EFF06A
:1090FB0090081AE0FF7E00EF24ECFFEE34FFFE90A9
:10910B0007F9EEF0A3EFF090081BE0FF7E007E0066
:10911B00EF5403FF9007FBEEF0A3EFF090081BE07A
:10912B00FFEF1313543FFF7E007E00EF5403FF90BD
:10913B0007FDEEF0A3EFF090081BE0FFEFC4540F18
:10914B00FF7E007E00EF5403FF9007FFEEF0A3EFCE
:10915B00F090081BE0FFEFC413135403FF7E007E57
:10916B0000EF5403FF900803EEF0A3EFF090081C00
:10917B00E0FF7E007E00EF5403FF900801EEF0A3AA
:10918B00EFF090081CE0FFEF1313543FFF7E007EBF
:10919B0000EF5403FF9007E9EEF0A3EFF090081CEB
:1091AB00E0FFEFC4540FFF7E007E00EF5403FF90EF
:0891BB00080BEEF0A3EFF02217
:10C0A4009009E4E4F09009E5E4F0900812E0FF7EE2
:10C0B40000EF2402FFEE3400FE9009E4E0FD7C0072
:10C0C400C3ED9FEE6480F8EC648098501F9009E4FF
:10C0D400E0FF74112FF582E43408F583E0FF900942
:10C0E400E5E02FF09009E4E004F080BE9009E4E07C
:10C0F400FF74112FF582E43408F583E0FF9009E51D
:10C10400E0FEEE6F704D900811E0FFEFB4D821907F
:10C114000812E0FFEFB40118900813E0FFEFB4CC6D
:10C124000F9007E8E0FFEF54FDFF9007E8EFF022DF
:10C13400900811E0FFEFB4D81A900812E0FFEFB4B2
:10C144000A119007E8E0FFEF54FEFF9007E8EFF0D4
:03C15400128F8BBC
:01C1570022C5
:10BD97009009C9EBF0A3EAF0A3E9F09009CCEDF024
:10BDA70090080EE4F0A3E4F09009CDE4F09009CCFC
:10BDB700E0FF9009CDE0FEEEC39F50349009C9E043
:10BDC700FBA3E0FAA3E0F99009CDE0FF75F002EFDD
:10BDD700A4F58285F083126108FFAEF090080FE0AA
:10BDE7002FF090080EE03EF09009CDE004F080BD02
:10BDF70090082BE0FEA3E0FF90080EE0FCA3E0FD17
:10BE0700ED6F7002EC6E605390080EE0FEA3E0FF4A
:10BE170090082BEEF0A3EFF09007E8E0FFEF20E1AA
:10BE27003A9007E8E0FFEF54FEFF9007E8EFF09045
:10BE370007E8E0FFEF4402FF9007E8EFF0C28AE56A
:10BE4700432432F539E5423400F538C3E5399432F5
:0BBE5700E53894005003753401D28AD6
:01BE620022BD
:10C202009009F9E4F09009F9E0FFEFC3940D501999
:10C212009009F9E0FF741E2FF582E43408F583E4F7
:10C22200F09009F9E004F080DC9009F9E4F090095B
:10C23200F9E0FFEFC3940D50199009F9E0FF741172
:10C242002FF582E43408F583E4F09009F9E004F074
:10C2520080DC9009F9E4F09009F9E0FFEFC3941251
:10C26200501E9009F9E0FFEF25E024E9F582E4345D
:10C2720007F583E4F0A3E4F09009F9E004F080D735
:10C2820090082FE4F090082EE4F090082DE4F0904E
:10C29200080DE4F075370075350075360075340009
:06C2A2007538007539003B
:01C2A8002273
:10C2A9009009FA7432F09007E87401F09009FAE005
:10C2B900FFEF6074900810E0FFEFB4010F9008E9F8
:10C2C900E0FFEF4401FF9008E9EFF022C28AE53769
:10C2D900B40118D3E54394FBE54294FF40060000FE
:10C2E90000008003753700D28A80C1C3E5439536C3
:10C2F900E542953540B6E5432404F536E542340078
:10C30900F535C3E5369404E53594005003753701D6
:10C31900D28A9009FAE014F012D4767B017A08796E
:10C329001E7D0412CF93808453A5FEE5F254FEFFCF
:10C33900EF4401F5F2D29053A5FDE5F254FDFFEF6C
:06C349004402F5F2D2915E
:01C34F0022CB
:10CA5700900810E0FFEF6008900810E4F012C0A4FF
:10CA6700C28AE534B40115D3E54394CDE54294FF7A
:10CA7700400400008003753400D28A22C3E5439541
:10CA870039E5429538404BE5432432F539E54234E0
:10CA970000F538C3E5399432E5389400500375340E
:10CAA70001D28A9007E8E0FFEF30E00F12D4767BDF
:10CAB700017A08791E7D0412CF93229007E8E0FFE0
:10CAC700EF30E10E1299637B017A08791E7D0D1212
:03CAD700CF9322D8
:0300830002B9D3EC
:10B9D300C0E0C083C082C0D075D000C006C007E5F8
:10B9E300D220E00302BABF53D2FE90082EE5D3F073
:10B9F30090082FE0FFEF701C90082EE0FFEFB4D803
:10BA03001390082F7401F090082EE0FF900811EFB7
:10BA1300F002BABF90082FE0FFEFB4012C90082E7C
:10BA2300E0FFEFC39414502190082F7402F09008A4
:10BA33002EE0FF900812EFF090080DE4F090082E2E
:10BA4300E0FF90082DEFF0807390082FE0FFEFB434
:10BA5300023990082DE0FFEFD39400402E90082D7B
:10BA6300E014FFF0EF700690082F7403F090082E97
:10BA7300E0FF90080DE0FE74132EF582E43408F520
:10BA830083EFF090080DE004F0803190082FE0FF81
:10BA9300EFB4032390082FE4F090082EE0FF900802
:10BAA3000DE0FE74132EF582E43408F583EFF09075
:10BAB30008107401F0800590082FE4F0D007D00639
:09BAC300D0D0D082D083D0E03253
:10CEE30090086AE4F0A3E4F090086CE4F0A3E4F0A3
:10CEF30090086EE4F0A3E4F0900870E4F0A3E4F08B
:10CF0300900872E4F0A3E4F0900874E4F0A3E4F072
:10CF1300900876E4F0A3E4F0900878E4F0A3E4F05A
:10CF230090087AE4F0A3E4F0900865E4F0900864D4
:09CF33007401F0900869E4F02299
:10D39500D2EC900869E0FFEF60F890086AE0FEA320
:10D3A500E0FFD3EF94D0EE9407401F90086AE0FEAB
:10D3B500A3E0FFC3EF9494EE9411500E9008E9E0BA
:0BD3C500FFEF4402FF9008E9EFF022A8
:10D6A300900869E0FFEFB4010F900864E0FFEF60BA
:09D6B30007900864E4F0D2EC22B7
:030053000293C550
:1093C500C0E0C0F0C083C082C0D075D000C000C06E
:1093D50001C002C003C004C005C006C007C2ED90AD
:1093E5000865E0FFEF1263AC940900940E01941335
:1093F50002941803941D04942205942706942C07BF
:109405000000942F75BB0E802175BB0D801C75BBAC
:109415000C801775BB0B801275BB0A800D75BB09D7
:10942500800875BB02800375BB0FAFBDAEBEE4FC03
:10943500FD9008601262E27F6C7E6B7D007C00907F
:109445000860E0F8A3E0F9A3E0FAA3E0FB12619756
:109455007B007A0479007800126222900866EEF0AB
:10946500A3EFF0900865E0FFEF14FF900868EFF0B8
:10947500900868E0FFC3EF64809480403F900866E1
:10948500E0FCA3E0FD900868E0FFEF3395E0FEEF18
:1094950025E0FFEE33FE746A2FF58274083EF583EE
:1094A500E0FEA3E0FFC3ED9FFFEC9EFE900866EE95
:1094B500F0A3EFF0900868E014F080B4900866E03F
:1094C500FEA3E0FFD3EF94D0EE9407403B900866EF
:1094D500E0FEA3E0FFC3EF9494EE9411502A9008A8
:1094E50066E0FCA3E0FD900865E0FFEF3395E0FE44
:1094F500EF25E0FFEE33FE746A2FF58274083EF522
:1095050083ECF0A3EDF08020900865E0FFEF339544
:10951500E0FEEF25E0FFEE33FE746A2FF582740856
:109525003EF583E4F0A3E4F0900865E0FFC3EF6443
:10953500809487500A900865E004F0D2EC80599039
:10954500087AE4F0A3E4F0900868E4F0900868E095
:10955500FFC3EF648094885034900868E0FFEF33D0
:1095650095E0FEEF25E0FFEE33FE746A2FF5827479
:10957500083EF583E0FEA3E0FF90087BE02FF09026
:10958500087AE03EF0900868E004F080BF90086536
:10959500E4F09008697401F0D007D006D005D00436
:1095A500D003D002D001D000D0D0D082D083D0F06B
:0395B500D0E032D1
:10D55500752D00752E00752B00752C96752F05758C
:10D565003078900978E4F0A3E4F090097AE4F0A328
:0BD57500E4F090097CE4F0A3E4F02255
:0FD746009008E9E0FFEF4408FF9008E9EFF022B8
:01D7F3002213
:03007300029CF3F9
:109CF300C0E0C0F0C083C082C0D075D000C000C037
:109D030004C005C006C007C3E52E9530E52D952F89
:109D1300500FD3E52E952CE52D952B400CC2848056
:109D230008D284752D00752E00052EE52E700205D0
:109D33002D53917F900978E0FEA3E0FFEF4E60037F
:109D4300029DDF0532E5327002053190097CE0FEA9
:109D5300A3E0FF7C007D28126014C3E49FFFE49E10
:109D6300FEEF24C4FFEE3409FED3E5329FE5319EB6
:109D73005003029E81E533602190097BE004F0707B
:109D83000690097AE004F090097AE0FEA3E0FFEF81
:109D930064324E7026753300802190097BE024FFE6
:109DA300F090097AE034FFF090097AE0FEA3E0FF37
:109DB300EFB4CE07EEB4FF0375330190097AE0FEEA
:109DC300A3E0FFEF2496F52CEE3400F52B9009B5B4
:109DD3007406F0753100753200029E81900978E0B7
:109DE300FEA3E0FFEF64014E701590097AE0FEA335
:109DF300E0FFEF2496F52CEE3400F52B029E8190C4
:109E03000978E0FEA3E0FFEF64024E701C90097A2C
:109E1300E4F0A3E4F090097AE0FEA3E0FFEF2496D8
:109E2300F52CEE3400F52B8055900978E0FEA3E085
:109E3300FFEF64034E701D90097AE4F0A37432F0CF
:109E430090097AE0FEA3E0FFEF2496F52CEE3400B0
:109E5300F52B802A900978E0FEA3E0FFEF64044E1F
:109E6300701C90097A74FFF0A374CEF090097AE025
:109E7300FEA3E0FFEF2496F52CEE3400F52BD0077C
:109E8300D006D005D004D000D0D0D082D083D0F07B
:039E9300D0E032EA
:1063FF00B9CC00FE02EA2A2A3E2A2AEA02FE000F40
:10640F000405050505050505040FB6A8000C14D4F1
:10641F001414F6949494140C0008040304080F0841
:10642F000808080800000000000000081C3E7F005C
:10643F00007F3E1C0800002466E76624002063E30B
:10644F0063200004C6C7C604001C001C001C000605
:10645F00090906000060600000001C22414F49221C
:10646F001C00243E20001C003A2A2E001C002A2A61
:10647F003E000060505048484444447C00000000F7
:10648F0000000000000000000000000000000000FD
:10649F0000000000000000000000000000000000ED
:1064AF0000000000000000000000000000000000DD
:1064BF0000000000000000000000000000000000CD
:1064CF0000000000000000000000000000000000BD
:1064DF0000000000000000000000000000000000AD
:1064EF000000000000000000000000006F6F0000BF
:1064FF0000000700070000147F147F1400242A7F78
:10650F002A120023130864620036495522500000F6
:10651F000706000000001C224100000041221C0061
:10652F000014083E08140008083E0808000000A0E8
:10653F0060000008080808080000606000000020E4
:10654F0010080402003E5149453E0000427F4000C2
:10655F00004261514946002141454B310018141248
:10656F007F10002745454539003C4A494930000115
:10657F007109050300364949493600064949291E64
:10658F0000003636000000005636000000081422C6
:10659F0041000014141414140041221408000002C6
:1065AF000151090600324959513E007C1211127CEB
:1065BF00007F49494936003E41414122007F414118
:1065CF00221C007F49494941007F09090901003E0A
:1065DF004149497A007F0808087F0000417F410048
:1065EF00002040413F01007F08142241007F4040BE
:1065FF004040007F020C027F007F0408107F003EA6
:10660F004141413E007F09090906003E4151215E8B
:10661F00007F091929460046494949310001017F88
:10662F000101003F4040403F001F2040201F003F1E
:10663F004038403F006314081463000708700807D0
:10664F0000615149454300007F41410000552A55E3
:10665F002A55000041417F0000040201020400405E
:10666F00404040400000060700000020545454787A
:10667F00007F4844443800384444442000384444A0
:10668F00487F00385454541800087E09010200183E
:10669F00A4A4A47C007F080404780000447D40007B
:1066AF00004080847D00007F102844000000417F5F
:1066BF004000007C04180478007C0804047800383B
:1066CF004444443800FC242424180018242418FCC3
:1066DF00007C0804040800485454542000043F442C
:1066EF004020003C4040207C001C2040201C003CEF
:1066FF004030403C004428102844001CA0A0A07C3F
:10670F00004464544C440000083E41000000007EE9
:10671F00000000413E0800000010081010081F1173
:10672F001F00091F010017151D0015151F001D045F
:10673F001F001D1517001F15170010101F001F1524
:10674F001F001D151F0001000000040404040704AE
:10675F00070407000F0107010F0000000000040EDF
:10676F000400010618000A0000000A0000000A00D9
:10677F0000000A0000000A0000000F140F001F1590
:10678F000F001F1111001F110E001F1515001F14F0
:10679F0014001F1117001F041F00001F000003012A
:1067AF001F001F041B001F0101001F081F001F0EE9
:1067BF001F000E110E001F141C001F110E001F16BC
:1067CF001D001D151700101F10001F011F001E01B7
:1067DF001E001F021F001B041B00180718001315B3
:1067EF00190013151900424D40040000000000006D
:1067FF003E00000028000000800000004000000064
:10680F00010001000000000002040000120B000054
:10681F00120B00000000000000000000FFFFFF004F
:10682F000000000000000000000000000000000059
:10683F000000000000000000000000000000000049
:10684F000000000000000000000000000000000039
:10685F000000000000000000000000000000000029
:10686F000000000000000000000000000000000019
:10687F000000000000000000000000000000000009
:10688F0000000000000000000000000000000000F9
:10689F0000000000000000000000000000000000E9
:1068AF0000000000000000000000000000000000D9
:1068BF0000000000000000000000000000000000C9
:1068CF0000000000000000000000000000000000B9
:1068DF0000000000000000000000000000000000A9
:1068EF000000000000000000000000000000000099
:1068FF000000000000000000000000000000000089
:10690F000000000000000000000000000000000078
:10691F000000000000000000000000000000000068
:10692F000000000000000000000000000000000058
:10693F000000000000000000000000000000000048
:10694F000000000000000000000000000000000038
:10695F000000000000000000000000000000000028
:10696F000000000000000000000000000000000018
:10697F000000000000000000000000000000000008
:10698F0000000000000000FFC07C3E1E3C7F9CE723
:10699F0000000000000000FFE1FE3E1E38FF9CE7F4
:1069AF00000000000000007FF3FF1F1F78FFDCE7EF
:1069BF000000000000000078F3C01F0F78E3DCE751
:1069CF0000000000000000787B9F1F0FFCE1CE73DA
:1069DF0080000000000000387B9F8F8FFCF1CE738A
:1069EF00800000000000003C7BC00F871E71EE731B
:1069FF00800000000000003C7BE00F871E70EF7BE3
:106A0F00C78000000000003FF9FFBFE7FE70E7FFFF
:106A1F00884000000000001FF0FFBFF3FC78F7FF75
:106A2F0095A000000000001FE03F9FF3F83873FEB1
:106A3F001720000000000000000000000000000010
:106A4F0015A0000000000000000000000000000082
:106A5F001720000000000000000000000E7E7ECE18
:106A6F00084000000000000000000000067070C623
:106A7F00078000000000000000000000063F30E724
:106A8F000000000000000000000000000733B863A2
:106A9F00000000000000000000000000031F9F7FA7
:106AAF0000000000000000000000000003000030A4
:106ABF000000000000000000000000000FC00030C8
:106ACF000000000000000000000000000FE00000C8
:106ADF0000000000000000000000000000000000A7
:106AEF000000000000000000000000000000000097
:106AFF000000000000000000000000000000000087
:106B0F000000000000000000000000000000000076
:106B1F000000000000000000000000000000000066
:106B2F000000000000000000000000000000000056
:106B3F000000000000000000000000000000000046
:106B4F000000000000000000000000000000000036
:106B5F000000000000000000000000000000000026
:106B6F000000000000000000000000000000000016
:106B7F000000000000000000000000000000000006
:106B8F0000000000000000000000000000000000F6
:106B9F0000000000000000000000000000000000E6
:106BAF0000000000000000000000000000000000D6
:106BBF0000000000000000000000000000000000C6
:106BCF0000000000000000000000000000000000B6
:106BDF0000000000000000000000000000000000A6
:106BEF000000000000000000000000000000000096
:106BFF000000000000000000000000000000000086
:106C0F000000000000000000000000000000000075
:106C1F000000000000000000000000000000000065
:066C2F000000000000005F
:05D64D009009E6EFF07A
:10D652009009E6E0FF9009E7EFF09009E7E014FF98
:07D66200F0EFD3940050F338
:01D66900229E
:07D7CD00C286C283C285225F
:05D357009009E8EFF071
:10D35C009009E9E4F09009E9E4F09009E9E0FFEFC5
:10D36C00C394085023C2839009E8E0FFEF33928501
:10D37C009009E8E0FFEF25E0FF9009E8EFF0D28399
:08D38C009009E9E004F080D2F1
:01D394002276
:10D60E009009FBEFF0C2939009FBE0FF12D64DD2CA
:10D61E00939009FBE0FFEF75F005A4FF12D64D22A3
:10D726009009FCEFF0C2829009FCE0FF12D3572269
:10D736009009FDEFF0D2829009FDE0FF12D3572247
:10CE800012D7CD7FF012D60E7FE212D7267FF01296
:10CE9000D64D7F2C12D7267FF012D64D7F2E12D77B
:10CEA000267FF012D64D7F2F12D7267FF012D64D57
:10CEB0007F2412D7267F8112D7267F1A12D7267F8A
:10CEC000A212D7267FC812D7267FA012D7267F406E
:10CED00012D7267FA612D7267FA412D7267FAF129D
:03CEE000D7262230
:10D714009009FEEFF09009FEE0FFEF44B0FF12D74E
:02D724002622BB
:10D5A7009009FFEFF09009FFE0FFEF540FFF12D74C
:10D5B700269009FFE0FFEFC4540FFFEF2410FF127E
:03D5C700D7262242
:10D442009009EAEFF09009EBEDF09009EAE0FFEFC6
:10D4520044B0FF12D7269009EBE0FFEF540FFF1202
:10D46200D7269009EBE0FFEFC4540FFFEF2410FF23
:04D4720012D7262285
:05CDB1009009DEEFF027
:10CDB6009009DFE4F09009E0E4F09009DEE0FFEF8F
:10CDC60060047FFF80027F009009DEEFF09009DFAC
:10CDD600E4F09009DFE0FFEFC3940850359009DFD7
:10CDE600E0FF12D7147F0012D5A79009E0E4F09077
:10CDF60009E0E0FFEFC3948050109009DEE0FF12D7
:10CE0600D7369009E0E004F080E59009DFE004F011
:02CE160080C0DA
:01CE180022F7
:0ED75500900A00EFF0900A00E0FF12D7362293
:10D62E009009ECEFF09009EDEDF09009ECE0FF14AD
:0FD63E00F0EF600A9009EDE0FF12D73680EC2282
:0AC9470090096AEFF090096BEDF023
:10C9510090096CE4F090096DE4F090096AE0FF7EC3
:10C96100007C007D0612601474332FF974643EFA62
:10C971007BFF90096EEBF0A3EAF0A3E9F090096C5C
:10C98100E4F090096CE0FFEFC39406504390096E08
:10C99100E0FBA3E0FAA3E0F990096CE0FF8F827558
:10C9A1008300125F80FF90096DEFF090096BE0FF4B
:10C9B100EF600D90096DE0FFEFF4FF90096DEFF06E
:10C9C10090096DE0FF12D73690096CE004F080B257
:01C9D1002243
:10CFE80090097EEFF090097FEDF0900980EBF090CA
:10CFF800097EE0FF90097FE0FD12D442900981E0AC
:10D00800FBA3E0FAA3E0F9125F67FFEF6023900942
:10D0180081E0FBA3E0FAA3E0F9125F67FF900980C3
:10D02800E0FD12C947900982E475F0011260B180F1
:02D03800CB2209
:10A32600900942E4F0900943E4F0900944E4F0A374
:10A33600E4F0900946E4F0A3E4F0900948E4F0A3C1
:10A34600E4F0900944E4F0A3E4F0900944E0FEA3AD
:10A35600E0FFC3EF9408EE9400400302A466900960
:10A3660046E4F0A3E4F0900946E0FEA3E0FFC3EF65
:10A376009480EE9400400302A455900944E0FEA3A5
:10A38600E0FF74017E00A807088005C333CE33CEF4
:10A39600D8F9FF900946E0FCA3E0FD74092DF5828B
:10A3A60074003CF583E0FD7C00EE5CFEEF5DFFEFA4
:10A3B6004E700302A444900943E0FFEF7015900924
:10A3C60044E0FEA3E0FF900946E0FCA3E0FD12D4C2
:10A3D60042802B900948E0FEA3E0FFEF2401FFEE48
:10A3E6003400FE900946E0FCA3E0FDEF6D7002EE3E
:10A3F6006C600B900946E0FEA3E0FF12D5A790091A
:10A4060044E0FEA3E0FFEF7807C333CE33CED8F99E
:10A41600FF900946E0FCA3E0FDEF2DFFEE3CFE7445
:10A42600892FF58274003EF583E0FF12D736900936
:10A4360046E0FEA3E0FF900948EEF0A3EFF0900996
:10A4460047E004F07006900946E004F002A36C9021
:10A456000945E004F07006900944E004F002A350B8
:10A46600900942E4F0900942E0FFEFC3948050194E
:10A47600900942E0FF74092FF582E43400F583E485
:09A48600F0900942E004F080DCD2
:01A48F0022AA
:10D66A00410489004100040042000500004200070D
:0CD67A000000420002000042000000001E
:10CB5C00900930EEF0A3EFF0900932ECF0A3EDF079
:10CB6C00900934EAF0A3EBF0900938E0FFEFB40140
:10CB7C0018900936E0FEA3E0FF900007EEF0A3EF5B
:10CB8C00F090000474FFF08016900932E0FEA3E0F0
:10CB9C00FF900007EEF0A3EFF09000047401F0900A
:10CBAC000930E0FEA3E0FF900005EEF0A3EFF0905B
:10CBBC000930E0FEA3E0FF900002EEF0A3EFF0904E
:10CBCC000934E0FEA3E0FF900000EEF0A3EFF022AA
:08A490009009CEEEF0A3EFF0FD
:10A49800900007E0FEA3E0FFEF7803CEC313CE13CE
:10A4A800D8F9FF9009D0EFF0900007E0FEA3E0FF95
:10A4B8007E00EF5407FF9009D1EFF09009CEE0FE3F
:10A4C800A3E0FFEF4E604F900005E0FEA3E0FF9091
:10A4D80009D0E0FD75F080EDA4F58285F083E58272
:10A4E8002FF582E5833EF583E5822489F582E583AD
:10A4F8003400F583C083C082E0FF9009D1E0FE7488
:10A5080001A806088002C333D8FCFEEF4EFFD082B4
:10A51800D083EFF08050900005E0FEA3E0FF9009A3
:10A52800D0E0FD75F080EDA4F58285F083E5822FFB
:10A53800F582E5833EF583E5822489F582E5833457
:10A5480000F583C083C082E0FF9009D1E0FE74016A
:10A55800A806088002C333D8FCFEEEF4FEEF5EFFC7
:10A56800D082D083EFF0900005E0FEA3E0FF7409ED
:10A578002FF58274003EF583C083C082E0FF900906
:10A58800D0E0FE7401A806088002C333D8FCFEEFB1
:10A598004EFFD082D083EFF0900006E004F0700602
:10A5A800900005E004F0900000E0FEA3E0FF9000BA
:10A5B80005E0FCA3E0FDD3ED9FEC9E402390000254
:10A5C800E0FEA3E0FF900005EEF0A3EFF09000049A
:10A5D800E0FF7E00900008E02FF0900007E03EF0DA
:01A5E8002250
:10BF2C0090091CEEF0A3EFF090091EECF0A3EDF0DD
:05BF3C00900920EBF06C
:10BF4100900921E0FF74017E00A807088005C33332
:10BF5100CE33CED8F9FF900924EEF0A3EFF090098B
:10BF610022E4F0900921E0FF900922E0FEEEC39F58
:10BF71005074900924E0FEA3E0FFEEC313FEEF131B
:10BF8100FF900924EEF0A3EFF0900924E0FEA3E076
:10BF9100FF900920E0FEEF5EFF900923EFF090098A
:10BFA10022E0FF7E0090091CE0FCA3E0FDEF2DFFE5
:10BFB100EE3CFE90091EE0FCA3E0FD900489E0FB4D
:10BFC100EB6010900923E0FBEB70047B0180027BA6
:10BFD100008005900923E0FB7A0012D2909009229B
:06BFE100E004F002BF6461
:01BFE7002237
:10BFE800900926EEF0A3EFF0900928ECF0A3EDF00D
:05BFF80090092AEBF0A6
:10BFFD0090092BE0FF74017E00A807088005C3336C
:10C00D00CE33CED8F9FF90092EEEF0A3EFF09009C4
:10C01D002CE4F090092BE0FF90092CE0FEEEC39F7D
:10C02D00507490092EE0FEA3E0FFEEC313FEEF1354
:10C03D00FF90092EEEF0A3EFF090092EE0FEA3E0A5
:10C04D00FF90092AE0FEEF5EFF90092DEFF09009B9
:10C05D0026E0FEA3E0FF90092CE0FD7C009009286E
:10C06D00E0FAA3E0FBED2BFDEC3AFC900489E0FB3C
:10C07D00EB601090092DE0FBEB70047B0180027BDF
:10C08D0000800590092DE0FB7A0012D29090092CCA
:06C09D00E004F002C020E7
:01C0A300227A
:10C350009008F9EEF0A3EFF09008FBECF0A3EDF0FD
:08C360009008FDEAF0A3EBF0E8
:10C36800900903E4F0A37401F0900901E4F0A3E458
:10C37800F09008FFE0FEA3E0FF900901E0FCA3E0D5
:10C38800FDC3ED9FEC9E50669008F9E0FEA3E0FF28
:10C39800C006C007900901E0FEA3E0FF9008FBE09B
:10C3A800FCA3E0FDED2FFDEC3EFC900903E0FEA3AD
:10C3B800E0FF9008FDE0FAA3E0FBEA5EFAEB5FFB22
:10C3C800D007D00612D290900903E0FEA3E0FFEF59
:10C3D80025E0FFEE33FE900903EEF0A3EFF090099D
:0EC3E80002E004F07006900901E004F080838A
:01C3F6002224
:10C49E009009EEE4F0A3E4F09009EEE0FEA3E0FFD5
:10C4AE00C3EE940450249009EEE0FEA3E0FF7489DD
:10C4BE002FF58274003EF583E4F09009EFE004F06E
:10C4CE0070069009EEE004F080CE9009EEE4F0A341
:10C4DE00E4F09009EEE0FEA3E0FFC3EF9480EE944B
:10C4EE000050249009EEE0FEA3E0FF74092FF582C0
:10C4FE0074003EF583E4F09009EFE004F0700690CE
:10C50E0009EEE004F080CB900489E4F0900004E49E
:10C51E00F0900005E4F0A3E4F0900007E4F0A3E44B
:10C52E00F0900002E4F0A3E4F0900000E4F0A3E445
:01C53E00F00C
:01C53F0022D9
:06D7DB00900489E4F02235
:05C540009009E1EFF09D
:10C545009009E2E4F0A3E4F09009E1E0FFEF600474
:10C555007FFF80027F009009E1EFF09009E2E4F0AF
:10C56500A3E4F09009E2E0FEA3E0FFC3EE940450DB
:10C57500299009E1E0FF9009E2E0FCA3E0FD748960
:10C585002DF58274003CF583EFF09009E3E004F0AB
:10C5950070069009E2E004F080C99009E2E4F0A396
:10C5A500E4F09009E2E0FEA3E0FFC3EF9480EE948F
:10C5B5000050259009E2E0FEA3E0FF74092FF58203
:10C5C50074003EF58374FFF09009E3E004F0700613
:08C5D5009009E2E004F080CAC5
:01C5DD00223B
:10D29000900984EEF0A3EFF0900986ECF0A3EDF096
:10D2A000900988EAF0A3EBF0900984E0FEA3E0FF88
:10D2B000900005EEF0A3EFF0900986E0FEA3E0FFFA
:10D2C000900007EEF0A3EFF0900988E0FEA3E0FFE6
:04D2D00012A49022F2
:10D03A0090094AEEF0A3EFF090094CECF0A3EDF062
:10D04A0090094EEAF0A3EBF090094CE0FEA3E0FF52
:10D05A0090094AE0FCA3E0FDD3ED9FEC9E5022909C
:10D06A00094AE475F0011260C7AFF0FE90094EE07C
:10D07A00FCA3E0FD900950E0FAA3E0FB12D29080F5
:02D08A00C722BB
:10D08C00900952EEF0A3EFF0900954ECF0A3EDF000
:10D09C00900956EAF0A3EBF0900956E0FEA3E0FFEE
:10D0AC00900954E0FCA3E0FDD3ED9FEC9E50229040
:10D0BC000952E0FEA3E0FF900954E475F001126000
:10D0CC00C7ADF0FC900958E0FAA3E0FB12D29080B7
:02D0DC00C72269
:108CB60090087CEEF0A3EFF090087EECF0A3EDF0C8
:088CC600900880EAF0A3EBF036
:108CCE00900886E4F0A3E4F0900888E4F0A3E4F0C2
:108CDE0090088AE4F0A3E4F090088CE4F0A3E4F0AA
:108CEE0090088EE4F0A3E4F0900890E4F0A3E4F092
:108CFE0090087CE0FEA3E0FF900880E0FCA3E0FD7E
:108D0E00C3ED9FFFEC9EFE12D77DC006C0079008F4
:108D1E007EE0FEA3E0FF900882E0FCA3E0FDC3ED41
:108D2E009FFFEC9EFE12D77DAC06AD07D007D00696
:108D3E00D3ED9FEE6480F8EC64809840067E007F51
:108D4E000180047E007F0090088EEEF0A3EFF0907D
:108D5E00088EE0FEA3E0FFEF4E606090087CE0FE20
:108D6E00A3E0FF900886EEF0A3EFF090087EE0FE01
:108D7E00A3E0FF90087CEEF0A3EFF0900886E0FEF3
:108D8E00A3E0FF90087EEEF0A3EFF0900880E0FEE7
:108D9E00A3E0FF900886EEF0A3EFF0900882E0FECD
:108DAE00A3E0FF900880EEF0A3EFF0900886E0FEBF
:108DBE00A3E0FF900882EEF0A3EFF0900880E0FEB3
:108DCE00A3E0FF90087CE0FCA3E0FDD3ED9FEC9EBA
:108DDE00406090087CE0FEA3E0FF900886EEF0A3D2
:108DEE00EFF0900880E0FEA3E0FF90087CEEF0A389
:108DFE00EFF0900886E0FEA3E0FF900880EEF0A36F
:108E0E00EFF090087EE0FEA3E0FF900886EEF0A360
:108E1E00EFF0900882E0FEA3E0FF90087EEEF0A354
:108E2E00EFF0900886E0FEA3E0FF900882EEF0A33C
:108E3E00EFF090087CE0FEA3E0FF900880E0FCA33A
:108E4E00E0FDC3ED9FFFEC9EFE900888EEF0A3EFD1
:108E5E00F090087EE0FEA3E0FF900882E0FCA3E025
:108E6E00FDC3ED9FFFEC9EFE12D77D90088AEEF0BB
:108E7E00A3EFF0900888E0FEA3E0FF7C007D0212D5
:108E8E00607B90088CEEF0A3EFF0900882E0FEA3DA
:108E9E00E0FF90087EE0FCA3E0FDC3ED9FEC9E504A
:108EAE000B900890E4F0A37401F0800A900890747F
:108EBE00FFF0A374FFF0900880E0FEA3E0FF90089F
:108ECE007CE0FCA3E0FDD3ED9FEC9E4003028F8A75
:108EDE0090088EE0FEA3E0FFEF4E601D90087EE04E
:108EEE00FEA3E0FF90087CE0FCA3E0FD900884E088
:108EFE00FAA3E0FB12D290801B90087CE0FEA3E068
:108F0E00FF90087EE0FCA3E0FD900884E0FAA3E069
:108F1E00FB12D29090088CE0FEA3E0FF90088AE04E
:108F2E00FCA3E0FDC3EF9DFFEE9CFE90088CEEF0DF
:108F3E00A3EFF090088CE0FEA3E0FFC3EE648094F4
:108F4E00805028900890E0FEA3E0FF90087FE02F6D
:108F5E00F090087EE03EF0900888E0FEA3E0FF90DF
:108F6E00088DE02FF090088CE03EF090087DE00434
:0C8F7E00F0700690087CE004F0028EC445
:018F8A0022C4
:10C5DE00900905EEF0A3EFF0900907ECF0A3EDF053
:08C5EE00900909EAF0A3EBF04B
:10C5F60090090FE4F0A3E4F0900909E0FEA3E0FF40
:10C60600900905E0FCA3E0FDD3ED9FEC9E506290FF
:10C616000907E0FEA3E0FF90090FEEF0A3EFF0900C
:10C62600090BE0FEA3E0FF90090FE0FCA3E0FDD3B9
:10C63600ED9FEC9E502B900905E0FEA3E0FF9009CC
:10C646000FE0FCA3E0FD90090DE0FAA3E0FB12D297
:10C6560090900910E004F0700690090FE004F08055
:10C66600BE900906E004F07006900905E004F0802B
:01C67600873C
:01C6770022A0
:1080BC00900892EEF0A3EFF0900894ECF0A3EDF0A2
:0B80CC00900896EBF0A3EAF0A3E9F0A7
:1080D700900899E4F090089AE4F090089BE4F0A3E4
:1080E700E4F090089DE4F0A3E4F0900896E0FBA389
:1080F700E0FAA3E0F975820A758300125F80FF7EBC
:108107000090089FEEF0A3EFF0900896E0FBA3E045
:10811700FAA3E0F9758213758300125F80FF7E0072
:10812700EF7F00FE900896E0FBA3E0FAA3E0F97565
:108137008212758300125F80FD7C00EE4CFEEF4DCE
:10814700FF9008A1EEF0A3EFF0900896E0FBA3E004
:10815700FAA3E0F9758217758300125F80FF7E002E
:10816700EF7F00FE900896E0FBA3E0FAA3E0F97525
:108177008216758300125F80FD7C00EE4CFEEF4D8A
:10818700FF9008A3EEF0A3EFF0900892E0FEA3E0C3
:10819700FFC006C007900894E0FCA3E0FDC004C040
:1081A700059008A1E0FEA3E0FF900892E0FCA3E0A1
:1081B700FDED2FFFEC3EFEEF24FFFBEE34FFFA90C0
:1081C70008A3E0FEA3E0FF900894E0FCA3E0FDED28
:1081D7002FFFEC3EFEEF24FFFFEE34FFFE90093643
:1081E700EEF0A3EFF09009387401F0D005D004D079
:1081F70007D00612CB5C900896E0FBA3E0FAA3E059
:10820700F975821C758300125F80FFEF64016003BC
:1082170002833E90089DE4F0A3E4F09008A3E0FEFB
:10822700A3E0FF90089DE0FCA3E0FDC3ED9FEC9E5B
:10823700400302833E900899E4F090089BE4F0A382
:10824700E4F09008A1E0FEA3E0FF90089BE0FCA308
:10825700E0FDC3ED9FEC9E5063900899E0FFEF703F
:108267002B900896E0FBA3E0FAA3E0F990089FE4BF
:1082770075F0011260C7AFF0FE8F828E83125F80A8
:10828700FF90089AEFF09008997480F0900899E0B1
:10829700FF90089AE0FEEE5FFF7E0012A490900820
:1082A70099E0FFEFC313FF900899EFF090089CE067
:1082B70004F0700690089BE004F0808690089BE02D
:1082C700FEA3E0FFEF2407FFEE3400FEEF7803CEB6
:1082D700C313CE13D8F9FF90089BEEF0A3EFF090ED
:1082E700089BE0FEA3E0FF7E00EF5403FFEF4E6024
:1082F70035900896E0FBA3E0FAA3E0F990089FE425
:1083070075F0011260C7AFF0FE8F828E83125F8017
:10831700FF90089AEFF090089CE004F07006900830
:108327009BE004F080B990089EE004F07006900886
:108337009DE004F0028222900896E0FBA3E0FAA3F6
:10834700E0F975821C758300125F80FFEF64086097
:10835700030283DE90089DE4F0A3E4F09008A3E015
:10836700FEA3E0FF90089DE0FCA3E0FDC3ED9FECBA
:108377009E506490089BE4F0A3E4F09008A1E0FE0F
:10838700A3E0FF90089BE0FCA3E0FDC3ED9FEC9EFC
:108397005035900896E0FBA3E0FAA3E0F990089F18
:1083A700E475F0011260C7AFF0FE8F828E83125F13
:1083B70080FF7E0012A49090089CE004F070069065
:1083C700089BE004F080B490089EE004F0700690EB
:0783D700089DE004F0808521
:0183DE00227C
:10A035009008EAEEF0A3EFF09008ECECF0A3EDF059
:05A045009008EEEBF0B5
:10A04A009008F4E4F09008F51262EE000000009027
:10A05A0008F4E4F09008EEE0FF9008F4E0FEEEC3A6
:10A06A009F400302A1AE9008F0E0FFEFD39408509E
:10A07A000302A0FB9008EEE0FF7E009008F4E0FDEA
:10A08A007C00ED2FFFEC3EFE9008F1E0FBA3E0FA26
:10A09A00A3E0F98F828E83125F80FFE4FCFDFE78D5
:10A0AA00081262CFC004C005C006C0079008F1E0DC
:10A0BA00FBA3E0FAA3E0F99008F4E0FF8F8275832E
:10A0CA0000125F80FFAB07E4FAF9F8D007D006D098
:10A0DA0005D004EF4BFFEE4AFEED49FDEC48FC903B
:10A0EA0008EFE0F9A8011262CF9008F51262E28047
:10A0FA003A9008F1E0FBA3E0FAA3E0F99008F4E053
:10A10A00FF8F82758300125F80FF7E009008EFE068
:10A11A00FDEFA805088005C333CE33CED8F9FFEE8C
:10A12A003395E0FDFC9008F51262E2900489E0FFA5
:10A13A00EF60179008F5E0FCA3E0FDA3E0FEA3E0C2
:10A14A00FF1262B49008F51262E29008F4E0FF7E12
:10A15A00009008EAE0FCA3E0FDEF2DFFEE3CFEC014
:10A16A0006C0079008ECE0FCA3E0FDC004C005901F
:10A17A0008F5E0FCA3E0FDA3E0FEA3E0FFAB07AA1D
:10A18A00069008F0E0FF7E009008FFEEF0A3EFF0E3
:10A19A00D005D004D007D00612C3509008F4E004CA
:04A1AA00F002A05EC1
:01A1AE00228E
:10BCBB00900911EEF0A3EFF0900913ECF0A3EDF067
:05BCCB00900915EBF0EB
:10BCD000900916E4F0900917E4F0A3E4F090091538
:10BCE000E0FF7E007C007D0612601474332FF9742F
:10BCF000643EFA7BFF900919EBF0A3EAF0A3E9F0A8
:10BD0000900916E4F0900916E0FFEFC39406400393
:10BD100002BD96900919E0FBA3E0FAA3E0F99009AF
:10BD200016E0FF8F82758300125F80FF7E00EF7543
:10BD3000F008A4FFAEF0900917EEF0A3EFF0900426
:10BD400089E0FFEF6016900917E0FEA3E0FFEFF433
:10BD5000FFEEF4FE900917EEF0A3EFF0900916E065
:10BD6000FF7E00900911E0FCA3E0FDEF2DFFEE3C0B
:10BD7000FE900913E0FCA3E0FD900917E0FAA3E0B0
:10BD8000FB9008FFE4F0A3740BF012C35090091667
:06BD9000E004F002BD0515
:01BD9600228A
:1095B8009008C9EEF0A3EFF09008CBECF0A3EDF023
:0895C8009008CDEAF0A3EBF0DE
:1095D0009008CFE4F0A3E4F09008D1E4F0A3E4F025
:1095E0009008D3E4F0A3E4F07B007A0079009008BF
:1095F000D5EBF0A3EAF0A3E9F09008CFE4F0A3E400
:10960000F09008CFE0FEA3E0FFC3EF9402EE9400D9
:10961000507B9008CFE0FEA3E0FF90640075F01A45
:10962000EF126330EE75F01AA42583F583E493FFFF
:109630007E00EF7F00FE9008CFE0FCA3E0FD90638A
:10964000FF75F01AED126330EC75F01AA42583F55E
:1096500083E493FD7C00EF2DFFEE3CFE9008D1EEFD
:10966000F0A3EFF09008CDE0FEA3E0FF9008D1E07A
:10967000FCA3E0FDED6F7002EC6E60119008D0E08D
:1096800004F070069008CFE004F00296019008CF35
:10969000E0FEA3E0FF7C007D1A12601474012FF934
:1096A00074643EFA7BFF9008D5EBF0A3EAF0A3E9DF
:1096B000F09008CFE4F0A3E4F09008CFE0FEA3E040
:0D96C000FFC3EF940CEE9400400302979955
:1096CD009008D5E0FBA3E0FAA3E0F99008CFE0FE07
:1096DD00A3E0FFEF240CFFEE3400FE8F828E831289
:1096ED005F80FF7E00EF7F00FE9008D5E0FBA3E0DA
:1096FD00FAA3E0F99008CFE0FCA3E0FD8D828C8306
:10970D00125F80FD7C00EE4CFEEF4DFF9008D8EE11
:10971D00F0A3EFF09008D8E0FEA3E0FFEF25E0FF07
:10972D00EE33FE9008D8EEF0A3EFF0900489E0FF41
:10973D00EF60169008D8E0FEA3E0FFEFF4FFEEF423
:10974D00FE9008D8EEF0A3EFF09008CFE0FEA3E076
:10975D00FF9008C9E0FCA3E0FDED2FFFEC3EFE906D
:10976D0008CBE0FCA3E0FD9008D8E0FAA3E0FB9065
:0B977D0008FFE4F0A37410F012C350CA
:109788009008D0E004F070069008CFE004F002964C
:01979800B917
:0197990022AD
:10BE6300900971EEF0A3EFF0900973ECF0A3EDF0FD
:10BE7300900975EBF0A3EAF0A3E9F0900975E0FBF4
:10BE8300A3E0FAA3E0F9125F67FFEF700302BF2399
:10BE9300900975E0FBA3E0FAA3E0F9125F67FFEFF7
:10BEA300D3947E403E900971E0FEA3E0FF900973B6
:10BEB300E0FCA3E0FD900975E0FBA3E0FAA3E0F941
:10BEC3001260DDFBAAF01295B8900972E0240CF021
:10BED300900971E03400F0900976E475F002126085
:10BEE300B18098900971E0FEA3E0FF900973E0FC34
:10BEF300A3E0FD900975E0FBA3E0FAA3E0F9125F6C
:10BF030067FB12BCBB900972E02406F0900971E054
:10BF13003400F0900976E475F0011260B102BE7E40
:09BF2300900971E0FEA3E0FF2289
:1089DC009008A5EEF0A3EFF09008A7ECF0A3EDF053
:0889EC009008A9EAF0A3EBF0EA
:1089F4009008B67420F09008A9E0FEA3E0FFC3EE4F
:108A040064809480501F9008B6742DF09008A9E0FB
:108A1400FEA3E0FFC3E49FFFE49EFE9008A9EEF0EE
:108A2400A3EFF080219008A9E0FEA3E0FFD3EF9428
:108A340000EE64809480400E9008ADE0FFEF600685
:108A44009008B6742BF09008A9E0FEA3E0FF90080C
:108A5400AFEEF0A3EFF09008ABE0FFEF70309008BA
:108A6400ABE4F09008AFE0FEA3E0FFEF4E601F9090
:108A740008ABE004F09008AFE0FEA3E0FF7C007DCB
:108A84000A12607B9008AFEEF0A3EFF080D5900857
:108A9400ACE0FF9008ABE0FEEED39F500D9008AC25
:108AA400E0FFEF04FF9008ABEFF09008ABE0FFEFBE
:108AB40075F006A4FF9008B3EFF09008ACE0FFEF68
:108AC40060079008B3E02406F09008ADE0FFEF647F
:108AD400FF60079008B3E02406F09008B1E4F0A327
:108AE4007401F09008B4E4F09008ABE0FFEF14FFD9
:108AF4009008B4E0FEEEC39F501F9008B1E0FEA3BF
:108B0400E0FF7C007D0A1260149008B1EEF0A3EF40
:108B1400F09008B4E004F080CF9008AEE0FFEF607E
:108B24001E9008A5E0FEA3E0FF9008B3E0FD7C00E2
:108B3400C3EF9DFFEE9CFE9008A5EEF0A3EFF0902E
:108B440008ADE0FFEF64FF60269008A5E0FEA3E017
:108B5400FF9008A7E0FCA3E0FD9008B6E0FB12BC80
:108B6400BB9008A6E02406F09008A5E03400F0903D
:108B740008B5E4F09008B4E4F09008ABE0FF900886
:108B8400B4E0FEEEC39F4003028CB59008B1E0FC54
:108B9400A3E0FD9008A9E0FEA3E0FF12607B7C0047
:108BA4007D0A12607B9008AFECF0A3EDF09008AB67
:108BB400E0FFEF14FF9008B4E0FEEFB5060690085E
:108BC400B57401F09008ABE0FFEF14FF9008ACE03F
:108BD400FEC3EF9EFF9008B4E0FEEF6E7060900855
:108BE400ACE0FFEF60589008B57401F09008A5E080
:108BF400FEA3E0FF9008A7E0FCA3E0FD9008AFE02F
:108C0400FAA3E0FBEB2430FB12BCBB9008A6E024E3
:108C140006F09008A5E03400F09008A5E0FEA3E07B
:108C2400FF9008A7E0FCA3E0FD7B2E12BCBB9008DC
:108C3400A6E02406F09008A5E03400F080539008E4
:108C4400AFE0FEA3E0FFEF4E60089008B57401F0BA
:108C540080129008B5E0FFEF700A9008AF74FFF03F
:108C6400A374F0F09008A5E0FEA3E0FF9008A7E04D
:108C7400FCA3E0FD9008AFE0FAA3E0FBEB2430FB9B
:108C840012BCBB9008A6E02406F09008A5E03400CE
:108C9400F09008B1E0FEA3E0FF7C007D0A12607B47
:108CA4009008B1EEF0A3EFF09008B4E004F0028B6A
:018CB4007D42
:018CB500229C
:10CBDC0090098AEEF0A3EFF090098CECF0A3EDF045
:05CBEC0090098EEBF042
:10CBF10090098FE4F090098FE4F090098FE0FFEF46
:10CC0100C39404505390098FE0FF90098EE0FEEE2B
:10CC110025E025E0242DF582E43467F583E5822FB4
:10CC2100F582E43583F583E493FB90098FE0FF7E81
:10CC31000090098AE0FCA3E0FDEF2DFFEE3CFE90A1
:10CC4100098CE0FCA3E0FD90092B7405F012BFE80C
:08CC510090098FE004F080A2BD
:01CC590022B8
:10A9E00090095AEEF0A3EFF090095CECF0A3EDF0C3
:10A9F00090095EEBF0A3EAF0A3E9F090095EE0FBBA
:10AA0000A3E0FAA3E0F9125F67FFEF700302AB0F58
:10AA100090095EE0FBA3E0FAA3E0F9125F67FF9004
:10AA20000961EFF0900961E0FFC3EF648094E140B9
:10AA30001B900961E0FFD3EF648094FA500E9009F7
:10AA400061E0FFEF24E0FF900961EFF0900961E021
:10AA5000FFC3EF648094C1402B900961E0FFD3EF06
:10AA6000648094DA501E90095AE0FEA3E0FF90093A
:10AA70005CE0FCA3E0FD900961E0FBEB24D6FB1257
:10AA8000CBDC8070900961E0FFC3EF648094B0403C
:10AA90002B900961E0FFD3EF648094B9501E9009B8
:10AAA0005AE0FEA3E0FF90095CE0FCA3E0FD900902
:10AAB00061E0FBEB24D0FB12CBDC8038900961E035
:10AAC000FFEFB4201790095AE0FEA3E0FF90095C65
:10AAD000E0FCA3E0FD7B0F12CBDC801890095AE06C
:10AAE000FEA3E0FF90095CE0FCA3E0FD900961E0BB
:10AAF000FB12CBDC90095FE475F0011260B19009A4
:0CAB00005BE02404F090095AE03400F0FF
:04AB0C0002A9FB227D
:1086F1009008B7EEF0A3EFF09008B9ECF0A3EDF01D
:088701009008BBEAF0A3EBF0C5
:108709009008C1E4F0A3E4F09008C3E4F0A3E4F016
:108719009008C5E4F09008C6E4F09008C7E4F0902A
:1087290008C8740FF09008BBE0FEA3E0FFC3EE6435
:10873900809480501F9008C8740BF09008BBE0FE2D
:10874900A3E0FFC3E49FFFE49EFE9008BBEEF0A305
:10875900EFF080219008BBE0FEA3E0FFD3EF940087
:10876900EE64809480400E9008BFE0FFEF600690B1
:1087790008C87410F09008BBE0FEA3E0FF9008C1A0
:10878900EEF0A3EFF09008BDE0FFEF70309008BD68
:10879900E4F09008C1E0FEA3E0FFEF4E601F9008EF
:1087A900BDE004F09008C1E0FEA3E0FF7C007D0A73
:1087B90012607B9008C1EEF0A3EFF080D59008BE5F
:1087C900E0FF9008BDE0FEEED39F500D9008BEE09B
:1087D900FFEF04FF9008BDEFF09008BDE0FFEF2523
:1087E900E025E0FF9008C5EFF09008BEE0FFEF60DC
:1087F900079008C5E02402F09008BFE0FFEF64FF8E
:1088090060079008C5E02404F09008C3E4F0A3745D
:1088190001F09008C7E4F09008BDE0FFEF14FF9065
:1088290008C7E0FEEEC39F501F9008C3E0FEA3E017
:10883900FF7C007D0A1260149008C3EEF0A3EFF0EC
:108849009008C7E004F080CF9008C0E0FFEF601EF9
:108859009008B7E0FEA3E0FF9008C5E0FD7C00C3E7
:10886900EF9DFFEE9CFE9008B7EEF0A3EFF09008A5
:10887900BFE0FFEF64FF60269008B7E0FEA3E0FFCA
:108889009008B9E0FCA3E0FD9008C8E0FB12CBDC3E
:108899009008B8E02404F09008B7E03400F090089C
:1088A900C7E4F09008BDE0FF9008C7E0FEEEC39F63
:1088B90040030289DB9008C3E0FCA3E0FD9008BBFC
:1088C900E0FEA3E0FF12607B7C007D0A12607B90D2
:1088D90008C1ECF0A3EDF09008BDE0FFEF14FF90A4
:1088E90008C7E0FEEFB506069008C67401F09008C7
:1088F900BDE0FFEF14FF9008BEE0FEC3EF9EFF90BE
:1089090008C7E0FEEF6E705C9008BEE0FFEF6054B0
:108919009008C67401F09008B7E0FEA3E0FF900844
:10892900B9E0FCA3E0FD9008C1E0FAA3E0FB12CB9B
:10893900DC9008B8E02404F09008B7E03400F09027
:1089490008B7E0FEA3E0FF9008B9E0FCA3E0FD7BD7
:108959000A12CBDC9008B8E02402F09008B7E034A2
:1089690000F0804E9008C1E0FEA3E0FFEF4E6008E2
:108979009008C67401F080119008C6E0FFEF7009F5
:108989009008C1E4F0A3740FF09008B7E0FEA3E0EB
:10899900FF9008B9E0FCA3E0FD9008C1E0FAA3E06C
:1089A900FB12CBDC9008B8E02404F09008B7E0345F
:1089B90000F09008C3E0FEA3E0FF7C007D0A12608E
:1089C9007B9008C3EEF0A3EFF09008C7E004F00233
:0289D90088AC68
:0189DB002279
:0BD7890006020002000400050003007F
:10CCD8009009D2EBF0A3EAF0A3E9F09009D5EDF0C2
:10CCE800751200E512C39403501C7B007A0079008A
:10CCF800AF12EF75F003A42413F8A60308A60208E0
:10CD0800A601051280DD7512009009D2E0FBA3E0B0
:10CD1800FAA3E0F9AF12EF75F003A42413F8A60301
:10CD280008A60208A6019009D5E0FF9009D2E0FB09
:0ECD3800A3E0FAA3E0F989828A831263D6226F
:10D206009009D6EBF0A3EAF0A3E9F09009D9EDF086
:10D216009009D6E0FBA3E0FAA3E0F9AF12EF75F0B0
:10D2260003A42413F8A60308A60208A6019009D9A8
:10D23600E0FF9009D6E0FBA3E0FAA3E0F989828A31
:05D24600831263D622F3
:10D0DE009009DAEBF0A3EAF0A3E9F09009DDEDF0A8
:10D0EE00E512C3940250369009DAE0FBA3E0FAA3EE
:10D0FE00E0F90512AF12EF75F003A42413F8A6039E
:10D10E0008A60208A6019009DDE0FF9009DAE0FB0F
:0ED11E00A3E0FAA3E0F989828A831263D62285
:10D4A300900A01EFF0E512D3940040021512900A9E
:10D4B30001E0FFAE12EE75F003A42413F88603080F
:0DD4C300E6FA08E6F989828A831263D62210
:10A895009006FAE4F09006FCE4F09006FDE4F090F2
:10A8A50006FEE4F09006FBE4F09006FFE4F0900568
:10A8B5008EE4F0900590E4F0900591E4F090059217
:10A8C500E4F090058FE4F0900593E4F0900670E4D1
:10A8D500F0900672E4F0900673E4F0900674E4F0EC
:10A8E500900671E4F0900675E4F0900764E4F0904A
:10A8F5000766E4F0900767E4F0900768E4F09007D6
:10A9050065E4F0900769E4F0900996E4F090099801
:10A91500E4F0900999E4F090099AE4F0900997E43D
:10A92500F090099BE4F090099CE4F090099EE4F016
:10A9350090099FE4F09009A0E4F090099DE4F0905F
:10A9450009A1E4F09009AEE4F09009B0E4F09009B3
:10A95500B1E4F09009B2E4F09009AFE4F09009B3E6
:10A96500E4F09009A8E4F09009AAE4F09009ABE4BA
:10A97500F09009ACE4F09009A9E4F09009ADE4F099
:10A985009009A2E4F09009A4E4F09009A5E4F09000
:10A9950009A6E4F09009A3E4F09009A7E4F0900972
:10A9A50090E4F0900992E4F0900993E4F090099412
:10A9B500E4F0900991E4F0900995E4F09009B4E48D
:10A9C500F09009B6E4F09009B7E4F09009B8E4F026
:0BA9D5009009B5E4F09009B9E4F0220D
:0B4DBD00900939EBF0A3EAF0A3E9F045
:104DC800750800750900750A00750B00750C0075EB
:104DD8000D00750E00750F00751000751100900913
:104DE8003CE0FBA3E0FAA3E0F975820275830012A8
:104DF8005F80FF7E00EF2401FFEE3400FE7C007D23
:104E080014126014900939E0FBA3E0FAA3E0F9E971
:104E18002FF9EA3EFA90093FEBF0A3EAF0A3E9F094
:104E280090093CE0FBA3E0FAA3E0F97582017583E1
:104E380000125F80FFEF700302577C90093CE0FB93
:104E4800A3E0FAA3E0F9758201758300125F80FF81
:104E5800EF30E05190090BE4F0A3740FF090090DC6
:104E6800E4F0A3E4F07B7F7A007D007C007F007E85
:104E78000012C5DE900939E0FBA3E0FAA3E0F912BD
:104E8800635C7D017C007F037E0012BE6390095045
:104E9800E4F0A37401F07B0F7A007D7F7C007F0033
:104EA8007E0012D03A90093CE0FBA3E0FAA3E0F9B7
:104EB800758201758300125F80FFEF20E203024FC5
:104EC800FA90093CE0FBA3E0FAA3E0F975820475C7
:104ED8008300125F80FFEFD394095003024F729052
:104EE800093CE0FBA3E0FAA3E0F9758202758300B0
:104EF800125F80FF7E00EF2401FBEE3400FA900879
:104F0800BD7402F09008BEE4F09008BF74FFF09002
:104F180008C07401F07D067C007F747E001286F163
:104F28007B117D067C007F747E0012CBDC90093CEF
:104F3800E0FBA3E0FAA3E0F9758204758300125F31
:104F480080FFEFFB7A009008BD7402F09008BEE481
:104F5800F09008BF74FFF09008C0E4F07D067C0074
:104F68007F787E001286F1024FFA90093CE0FBA39D
:104F7800E0FAA3E0F9758202758300125F80FF7E74
:104F880000EF2401FBEE3400FA9008BD7402F090A3
:104F980008BEE4F09008BF74FFF09008C07401F0F8
:104FA8007D067C007F747E001286F17B117D067C75
:104FB800007F747E0012CBDC90093CE0FBA3E0FA92
:104FC800A3E0F9758204758300125F80FFEFFB7A16
:104FD800009008BD7401F09008BEE4F09008BF741A
:104FE800FFF09008C0E4F07D067C007F787E001218
:104FF80086F190093CE0FBA3E0FAA3E0F975820191
:10500800758300125F80FFEF540AFFEF70030257A9
:1050180064750800751000751110E508C394034005
:105028000302576490093CE0FBA3E0FAA3E0F9759A
:105038008204758300125F80FFE508C39F40030266
:10504800576490093CE0FBA3E0FAA3E0F9758203FA
:10505800758300125F80FFEF2508F50990093CE091
:10506800FBA3E0FAA3E0F9758202758300125F8062
:10507800FFE509B507047F0180027F00900489EFEE
:10508800F00509750E00750F00E509D3940940066F
:10509800750E00750F0490093CE0FBA3E0FAA3E04D
:1050A800F9758201758300125F80FFEF20E10B9094
:1050B8000489E0FFEF700302574FE5112401FDE575
:1050C800103400FCE511240FFFE5103400FE9009B0
:1050D8000BEEF0A3EFF0900489E0FF7E0090090D3D
:1050E800EEF0A3EFF07B7F7A007F017E0012C5DE31
:1050F800E5112406FDE5103400FCAF09EFFB7A004A
:105108009008BDE4F09008BEE4F09008BF74FFF08A
:105118009008C0E4F07F027E001286F1E50F2406B5
:10512800FFE50E3400FEE5112406FDE5103400FC11
:105138007B0A12CBDC900939E0FBA3E0FAA3E0F983
:10514800AF0975F014EFA4F58285F08312637CE54E
:105158000F2408FFE50E3400FEE5112402FDE510DA
:105168003400FC12BE63AF097E14EF8EF0A4FFAECC
:10517800F0900939E0FBA3E0FAA3E0F9E92FF9EA96
:105188003EFA75820375830012637CEA494B6038E6
:10519800900489E0FFEF6019E5112402FDE5103461
:1051A80000FC7BFF7AD779897F727E0012BE63800C
:1051B80017E5112402FDE5103400FC7BFF7AD7794E
:1051C8008C7F787E0012BE63AF097E14EF8EF0A448
:1051D800FFAEF0900939E0FBA3E0FAA3E0F9E92F6C
:1051E800F9EA3EFA75821175830012637CEA494B2D
:1051F8007003025290AF097E14EF8EF0A4FFAEF058
:10520800900939E0FBA3E0FAA3E0F9E92FF9EA3EB7
:10521800FA75821175830012637C12D6EC7C007DCE
:1052280006126014C374769FF50BE49EF50AAF0965
:105238007E14EF8EF0A4FFAEF0900939E0FBA3E0F6
:10524800FAA3E0F9E92FF9EA3EFA758211758300AD
:1052580012637CE5112402FDE5103400FCAF0BAEAF
:105268000A12BE638E0C8F0DE511240EFBE5103477
:1052780000FA900950E4F0A3E4F0AD0DAC0CAF0BCC
:10528800AE0A12D03A0255FAAF097E14EF8EF0A496
:10529800FFAEF0900939E0FBA3E0FAA3E0F9E92FAB
:1052A800F9EA3EFA75820D75830012637CEA494B70
:1052B80070030255FAAE097C007D14EE75F014A453
:1052C800FFAEF0900939E0FBA3E0FAA3E0F9E92F7B
:1052D800F9EA3EFA75820D75830012637C1260DD6F
:1052E800FDACF0AF097E14EF8EF0A4FFAEF090098C
:1052F80039E0FBA3E0FAA3E0F9E92FF9EA3EFA75F1
:10530800820B758300126108FFAEF0D3ED9FEE6447
:1053180080F8EC648098405EAF097E14EF8EF0A4AC
:10532800FFAEF0900939E0FBA3E0FAA3E0F9E92F1A
:10533800F9EA3EFA75820B758300126108FFAEF038
:10534800C006C007AE097C007D14EE75F014A4FFFA
:10535800AEF0900939E0FBA3E0FAA3E0F9E92FF9F0
:10536800EA3EFA75820D75830012637CD007D00679
:10537800EE8FF0126178AE097C007D14EE75F014A2
:10538800A4FFAEF0900939E0FBA3E0FAA3E0F9E945
:105398002FF9EA3EFA75820D75830012637C12605C
:1053A800DDFDACF0AF097E14EF8EF0A4FFAEF090F7
:1053B8000939E0FBA3E0FAA3E0F9E92FF9EA3EFA9C
:1053C800758209758300126108FFAEF0C3ED9FEE88
:1053D8006480F8EC648098505EAF097E14EF8EF01C
:1053E800A4FFAEF0900939E0FBA3E0FAA3E0F9E9E5
:1053F8002FF9EA3EFA758209758300126108FFAE3B
:10540800F0C006C007AE097C007D14EE75F014A448
:10541800FFAEF0900939E0FBA3E0FAA3E0F9E92F29
:10542800F9EA3EFA75820D75830012637CD007D0C5
:1054380006EE8FF0126178AF097E14EF8EF0A4FFAC
:10544800AEF0900939E0FBA3E0FAA3E0F9E92FF9FF
:10545800EA3EFA75820675830012637CEA494B704E
:105468000302556EAF097E14EF8EF0A4FFAEF090E4
:105478000939E0FBA3E0FAA3E0F9E92FF9EA3EFADB
:1054880075820675830012637CC003C002C001AE3A
:10549800097C007D14EE75F014A4FFAEF090093974
:1054A800E0FBA3E0FAA3E0F9E92FF9EA3EFA7582F6
:1054B8000D75830012637C1260DDFFAEF08F828E63
:1054C80083740312631FD001D002D00312637C12CD
:1054D800D6EC7C007D06126014C374769FF50BE44D
:1054E8009EF50AAF097E14EF8EF0A4FFAEF0900986
:1054F80039E0FBA3E0FAA3E0F9E92FF9EA3EFA75EF
:10550800820675830012637CC003C002C001AE0925
:105518007C007D14EE75F014A4FFAEF0900939E01C
:10552800FBA3E0FAA3E0F9E92FF9EA3EFA75820D48
:1055380075830012637C1260DDFFAEF08F828E836C
:10554800740312631FD001D002D00312637CE511EB
:105558002402FDE5103400FCAF0BAE0A12BE638EC8
:105568000C8F0D0255FAAE097C007D14EE75F0140F
:10557800A4FFAEF0900939E0FBA3E0FAA3E0F9E953
:105588002FF9EA3EFA75820D75830012637C12606A
:10559800DDFBAAF0C002C003AF097E14EF8EF0A4B1
:1055A800FFAEF0900939E0FBA3E0FAA3E0F9E92F98
:1055B800F9EA3EFA758210758300125F80FF900841
:1055C800ACEFF07E007F5A8E0A8F0BE5112402FDA6
:1055D800E5103400FC9008AB7403F09008ADE4F0DB
:1055E8009008AEE4F0D003D0021289DC750C007587
:1055F8000D7490093CE0FBA3E0FAA3E0F97582057D
:10560800758300125F80FFEF700302574F90048983
:10561800E0FFEF700302574FAE097C007D14EE7572
:10562800F014A4FFAEF0900939E0FBA3E0FAA3E080
:10563800F9E92FF9EA3EFA75820D75830012637C49
:105648001260DDFDACF0AF097E14EF8EF0A4FFAE62
:10565800F0900939E0FBA3E0FAA3E0F9E92FF9EAB1
:105668003EFA75820B758300126108FFAEF0EDB546
:10567800071EECB5061AE5112402FDE5103400FCFE
:105688007BFF7AD7798E7F787E0012BE6302574FF0
:10569800AE097C007D14EE75F014A4FFAEF09009FD
:1056A80039E0FBA3E0FAA3E0F9E92FF9EA3EFA753D
:1056B800820D75830012637C1260DDFDACF0AF09CA
:1056C8007E14EF8EF0A4FFAEF0900939E0FBA3E062
:1056D800FAA3E0F9E92FF9EA3EFA75820975830021
:1056E800126108FFAEF0EDB5071DECB50619E5111E
:1056F8002402FDE5103400FC7BFF7AD779907F788F
:105708007E0012BE638040E5112402FDE5103400DE
:10571800FC7BFF7AD779927F787E0012BE63E50B17
:1057280024FFFFE50A34FFFEE50D2401FDE50C34F6
:1057380000FCE511240EFBE5103400FA900950E452
:10574800F0A3E4F012D03A900489E4F0050874104C
:105758002511F511E43510F51002502212A32690F8
:10576800093CE0FBA3E0FAA3E0F975820175830028
:10577800E4125FF290093CE0FBA3E0FAA3E0F975BC
:105788008205758300125F80FFEF70030258D97F8E
:105798000112D4D0EF700302583390093FE0FBA305
:1057A800E0FAA3E0F975820D75830012637CEA497B
:1057B8004B607890093FE0FBA3E0FAA3E0F975821B
:1057C8000D75830012637C1260DDFFAEF090093F17
:1057D800E0FBA3E0FAA3E0F975820B758300126180
:1057E80008FDACF0C3EF9DEC6480F8EE648098503F
:1057F8003A90093FE0FBA3E0FAA3E0F975820D7542
:10580800830012637CE475F00112614090093CE06A
:10581800FBA3E0FAA3E0F9E92401F9EA3400FA125B
:105828005F67FFEF4408FFEF125FE07F0212D4D0FA
:10583800EF70030259D490093FE0FBA3E0FAA3E01C
:10584800F975820D75830012637CEA494B70030277
:1058580059D490093FE0FBA3E0FAA3E0F975820D63
:1058680075830012637C1260DDFFAEF090093FE0A3
:10587800FBA3E0FAA3E0F9758209758300126108B9
:10588800FDACF0D3EF9DEC6480F8EE648098500393
:105898000259D490093FE0FBA3E0FAA3E0F975822E
:1058A8000D75830012637C74FF75F0FF12614090E0
:1058B800093CE0FBA3E0FAA3E0F9E92401F9EA34A2
:1058C80000FA125F67FFEF4408FFEF125FE002592A
:1058D800D47F0112D4D0EF607690093CE0FBA3E0BE
:1058E800FAA3E0F9758202758300125F80FFEFD397
:1058F8009400401890093CE0FBA3E0FAA3E0F97596
:10590800820275830074FF125FAD802D90093CE020
:10591800FBA3E0FAA3E0F9758204758300125F80A7
:10592800FFEF14FF90093CE0FBA3E0FAA3E0F97550
:105938008202758300EF125FF290093CE0FBA3E05E
:10594800FAA3E0F97582017583007406125FF27F8D
:105958000212D4D0EF607590093CE0FBA3E0FAA3F3
:10596800E0F9758204758300125F80FFEF14FF90E1
:10597800093CE0FBA3E0FAA3E0F975820275830015
:10598800125F80FEEEC39F501890093CE0FBA3E035
:10599800FAA3E0F97582027583007401125FAD8085
:1059A8001590093CE0FBA3E0FAA3E0F975820275C3
:1059B8008300E4125FF290093CE0FBA3E0FAA3E065
:1059C800F97582017583007406125FF290093CE054
:1059D800FBA3E0FAA3E0F9758203758300125F80E8
:1059E800FF90093CE0FBA3E0FAA3E0F97582027599
:1059F8008300125F80FEEEC39F502A90093CE0FBB3
:105A0800A3E0FAA3E0F9758202758300125F80FFB4
:105A180090093CE0FBA3E0FAA3E0F97582037583E3
:105A280000EF125FF290093CE0FBA3E0FAA3E0F973
:105A3800758203758300125F80FFEF2402FF9009CF
:105A48003CE0FBA3E0FAA3E0F9758202758300123B
:105A58005F80FEEED39F402E90093CE0FBA3E0FA66
:105A6800A3E0F9758202758300125F80FFEF24FEC0
:105A7800FF90093CE0FBA3E0FAA3E0F97582037507
:065A88008300EF125FF243
:015A8E0022F5
:10B08700506172616D2045534320004D696E205613
:10B097006F6C743A004D61782054656D703A004DBD
:10B0A700617820437572723A002530322E32665627
:10B0B700002530322E316643002530322E3266416C
:10B0C70000526573657420746F2044656661756C02
:10B0D7007400202020596573206F72204E6F3F2027
:10B0E700202000205965733A454E54204E6F3A454B
:10B0F70058542000436F6E6669726D206F7220434B
:10B10700616E63656C00202020596573206F722083
:10B117004E6F213F20202000205965733A454E5439
:10B1270020204E6F3A45585420002020202050728E
:10B137006F6772616D2E2E2E2020202000FFB087B2
:10B1470000000000000000000003000000000000F5
:10B1570000FFB092000000000000000000000000A7
:10B1670000000106C6FFB09C0000000000000000C0
:10B17700000000000000010676FFB0A600000000F6
:0DB18700000000000000000000000106B202
:109E96009007A1E0FEA3E0FFEF7F00FE90079FE0A2
:109EA600FCA3E0FDEF2DFDEE3CFCEC125D327B00E9
:109EB6007A0079807844125C907B337A3379117812
:109EC60042125B879006F61262E27B017A0679C639
:109ED600C003C002C0017BFF7AB079B0900833EBB3
:109EE600F0A3EAF0A3E9F09006F6E0FCA3E0FDA3F8
:109EF600E0FEA3E0FF9008361262E2D001D002D065
:109F0600031279039007A5E0FEA3E0FFEF7F00FEB2
:109F16009007A3E0FCA3E0FDEF2DFDEE3CFCEC1268
:109F26005D327B337A3379537840125B877B007AD4
:109F36000079807844125C907BF07AA7794678BFE6
:109F4600125A967B007A00797A7844125B877B3DB9
:109F56007A0A79377840125C909006EE1262E27BBC
:109F6600017A067976C003C002C0017BFF7AB07918
:109F7600B8900833EBF0A3EAF0A3E9F09006EEE020
:109F8600FCA3E0FDA3E0FEA3E0FF9008361262E228
:109F9600D001D002D0031279039007A9E0FEA3E016
:109FA600FFEF7F00FE9007A7E0FCA3E0FDEF2DFD8D
:109FB600EE3CFCEC125D327B337A337953784012F7
:109FC6005B877B007A0079807844125C907B007A0C
:109FD6000079207841125C907B6F7A127903783A87
:109FE600125C907B007A0079007840125C909006B3
:109FF600F21262E27B017A0679B2C003C002C001A6
:10A006007BFF7AB079C0900833EBF0A3EAF0A3E9BE
:10A01600F09006F2E0FCA3E0FDA3E0FEA3E0FF90D3
:0FA0260008361262E2D001D002D0031279032271
:10CADA00900A02EFF0900A02E0FFEF6401703A7FD9
:10CAEA000012C5409006FAE0FFEF70159006FDE4CB
:10CAFA00F09006FCE4F09006FFE4F09006FA740168
:10CB0A00F090B14FE493FE740193FF9006FEEFF0AC
:10CB1A009006FB74FFF07F0122129E967BFF7AB18A
:10CB2A007944C003C002C0017B017A0679FA9009F0
:10CB3A003CEBF0A3EAF0A3E9F0D001D002D0031253
:10CB4A004DBD7F0812D4D0EF60057F0112D4A37FB8
:02CB5A000022B7
:10B8D400900A03EFF0900A03E0FFEF6401703B7FEE
:10B8E4000012C5407BFF7AB079C87D0A7C007F0FC7
:10B8F4007E0012BE637BFF7AB079D97D197C007F0C
:10B904000F7E0012BE637BFF7AB079EA7D287C004B
:10B914007F0F7E0012BE6312A3267F0412D4D0EFE1
:10B92400700302B9C3900781E4F0A37403F0900795
:10B9340083E4F0A37401F0900785E4F0A37401F0AC
:10B94400900787E4F0A37404F0900789E4F0A374EB
:10B954000BF090078BE4F0A3740CF090078DE4F0E7
:10B96400A37404F090078FE4F0A37404F09007919B
:10B97400E4F0A3741AF0900793E4F0A37402F09037
:10B984000795E4F0A37402F0900797E4F0A3745AC7
:10B99400F0900799E4F0A37403F090079BE4F0A3FC
:10B9A4007401F090079DE4F0A37402F09007B2E0F4
:10B9B400FFEF4440FF9007B2EFF07F0112D4A37F62
:0FB9C4000812D4D0EF60057F0112D4A37F0022B8
:10BACC00900A04EFF0900A04E0FFEF6401703B7FF2
:10BADC000012C5407BFF7AB079C87D0A7C007F0FCD
:10BAEC007E0012BE637BFF7AB079D97D197C007F12
:10BAFC000F7E0012BE637BFF7AB079EA7D287C0052
:10BB0C007F0F7E0012BE6312A3267F0412D4D0EFE7
:10BB1C00700302BBB5900781E4F0A37402F09007A8
:10BB2C0083E4F0A37401F0900785E4F0A37404F0AF
:10BB3C00900787E4F0A37401F0900789E4F0A374F4
:10BB4C0001F090078BE4F0A37402F090078DE4F001
:10BB5C00A37402F090078FE4F0A37403F0900791A4
:10BB6C00E4F0A37401F0900793E4F0A3E4F09007E1
:10BB7C0095E4F0A3E4F0900797E4F0A3E4F09007C9
:10BB8C0099E4F0A3E4F090079BE4F0A3E4F09007B1
:10BB9C009DE4F0A3E4F09007B2E0FFEF4440FF9087
:10BBAC0007B2EFF07F0112D4A37F0812D4D0EF605C
:09BBBC00057F0112D4A37F0022D1
:10BBC500900A05EFF0900A05E0FFEF6401703B7FF6
:10BBD5000012C5407BFF7AB079C87D0A7C007F0FD3
:10BBE5007E0012BE637BFF7AB079D97D197C007F18
:10BBF5000F7E0012BE637BFF7AB079EA7D287C0058
:10BC05007F0F7E0012BE6312A3267F0412D4D0EFED
:10BC1500700302BCAB900781E4F0A37401F09007B8
:10BC250083E4F0A37401F0900785E4F0A37401F0B8
:10BC3500900787E4F0A37402F0900789E4F0A374F9
:10BC450001F090078BE4F0A37402F090078DE4F007
:10BC5500A3E4F090078FE4F0A3E4F0900791E4F0FB
:10BC6500A3E4F0900793E4F0A3E4F0900795E4F0E3
:10BC7500A3E4F0900797E4F0A3E4F0900799E4F0CB
:10BC8500A3E4F090079BE4F0A3E4F090079DE4F0B3
:10BC9500A3E4F09007B2E0FFEF4440FF9007B2EF56
:10BCA500F07F0112D4A37F0812D4D0EF60057F0185
:06BCB50012D4A37F00225F
:05AB10009009F0EFF0D8
:10AB15009009F0E0FFEF6401703B7F0012C5407BB8
:10AB2500FF7AB079FB7D0A7C007F0F7E0012BE6341
:10AB35007BFF7AB1790D7D197C007F0F7E0012BEF7
:10AB4500637BFF7AB1791F7D287C007F0F7E001221
:10AB5500BE6312A3267F0412D4D0EF700302AC2784
:10AB65007B017A07797F7D1812C8B9EF700C9007C1
:10AB7500B2E0FFEF20E60302AC009007B2E0FFEF82
:10AB850030E5109007B2E0FFEF4440FF9007B2EFC9
:10AB9500F080689007B2E0FFEF54BFFF9007B2EF77
:10ABA500F09007B2E0FFEF4420FF9007B2EFF0907E
:10ABB50009F1E4F09009F1E0FFEFC39418503490E7
:10ABC50009F1E0FFEF25E0247FF582E43407F58302
:10ABD500E0FEA3E0FF9009F1E0FDED25E024B3F5EB
:10ABE50082E43407F583EEF0A3EFF09009F1E00479
:10ABF500F080C1758C80758A00D28C7F0012C540AB
:10AC05007BFF7AB179317D197C007F0F7E0012BE02
:10AC15006312A3269007B2E0FFEF20E5F77F01124C
:10AC2500D4A37F0812D4D0EF60057F0112D4A37F8F
:01AC3500001E
:01AC360022FB
:1083DF0045534300506172616D2045534320004D5A
:1083EF006F64653A004C69506F2043656C6C733A4B
:1083FF00004375744F666620547970653A00437573
:10840F00744F666620566F6C743A0042454320568F
:10841F006F6C743A00537461727455702054696DA7
:10842F00653A00476F7620506172616D20503A00B7
:10843F00476F7620506172616D20493A004152209A
:10844F0054696D653A005265737461727441636368
:10845F00656C3A004272616B6520547970653A0021
:10846F004272616B6520466F7263653A0054696DA5
:10847F00696E673A00526F74617465204469723A8D
:10848F00004163746976652046573A004C6F61640A
:10849F002044656661756C740050726F6772616D10
:1084AF006D65004572726F7200466978656420577A
:1084BF00696E67004C696E655448002A456C6647C3
:1084CF006F760053746F476F76002A4175746F0093
:1084DF00256453002A536F66740048617264004428
:1084EF006973002A2530322E316656002530322E20
:1084FF00316656002A25647300256473002A2564AB
:10850F00002564002A2530322E3166730025303263
:10851F002E316673002A4E6F720050726F706F7239
:10852F0000526576002A256425250025642525003F
:10853F003044656700372E35446567002A3135446E
:10854F0065670032322E3544656700333044656706
:10855F00002A43570043435700456E61626C6564C0
:10856F00002A44697300FF83DF0000000000000051
:10857F0000001200000000000000FF83E3FFCADAD2
:10858F000000000000000000000000000000FF835A
:10859F00EE0000000000000001000401078100014F
:1085AF000502FF83F4000000000000000100060137
:1085BF0007830001049EFF840000000000000000FC
:1085CF00010002010785000104C6FF840D000000B1
:1085DF000000000001000C0107870001048AFF84DE
:1085EF001A0000000000000001001F0107890001B0
:1085FF000552FF8424000000000000000100160156
:10860F00078B000104EEFF84320000000000000021
:10861F0001000901078D0001053EFF843F000000A6
:10862F000000000001000901078F0001052AFF84E7
:10863F004C0000000000000001005A0107910001EA
:10864F0004B2FF8455000000000000000100050186
:10865F0007930001057AFF8463000000000000000B
:10866F0001000401079500010566FF846F000000FB
:10867F0000000000010064010797000104DAFF8485
:10868F007C000000000000000100050107990001B7
:10869F000516FF84840000000000000001000201A5
:1086AF00079B00010594FF8490000000000000006C
:1086BF0001000201079D000105A8FF849BFFB8D4AC
:1086CF000000000000000000000000000000FF8418
:1086DF00A8FFAB1000000000000000000000000029
:0286EF00000089
:10AD5600900A06EFF0900A06E0FFEF640170457F67
:10AD66000012C54090058EE0FFEF70207B017A0748
:10AD7600797F7D1812C8B9900591E4F0900590E4AA
:10AD8600F0900593E4F090058E7401F0908580E4D0
:10AD960093FE740193FF900592EFF090058F74FF78
:10ADA600F07F01221240037BFF7A857975C003C0CC
:10ADB60002C0017B017A05798E90093CEBF0A3EA8B
:10ADC600F0A3E9F0D001D002D003124DBD7F0412EA
:10ADD600D4D0EF605E900590E0FF75F014EFA424E8
:10ADE6008CF582E5F03485F583E493FB740193FAE0
:10ADF600740293F9EA494B6026900590E0FF75F0DE
:10AE060014EFA4248CF582E5F03485F583E493FBF6
:10AE1600740193FA740293F97D0112D0DE801490C6
:10AE260005937401F090058FE0FFEF4408FF90054D
:10AE36008FEFF07F0812D4D0EF6023900593E0FFE8
:10AE4600EFB40115900593E4F090058FE0FFEF4411
:10AE560008FF90058FEFF080057F0112D4A37F00D5
:01AE660022C9
:10400300900781E0FEA3E0FFC3EF9401EE64809488
:10401300804013900781E0FEA3E0FFD3EF9404EE0A
:104023006480948040297B017A057902C003C00231
:10403300C0017BFF7A8479B2900833EBF0A3EAF0F6
:10404300A3E9F0D001D002D00312790302412990F1
:104053000781E0FEA3E0FFEF64014E70297B017A44
:10406300057902C003C002C0017BFF7A8479B8904E
:104073000833EBF0A3EAF0A3E9F0D001D002D003B8
:10408300127903024129900781E0FEA3E0FFEF6468
:10409300024E70287B017A057902C003C002C00179
:1040A3007BFF7A8479C3900833EBF0A3EAF0A3E9AA
:1040B300F0D001D002D003127903806A900781E027
:1040C300FEA3E0FFEF64034E70287B017A057902BB
:1040D300C003C002C0017BFF7A8479CA900833EB26
:1040E300F0A3EAF0A3E9F0D001D002D003127903E0
:1040F3008034900781E0FEA3E0FFEF64044E702656
:104103007B017A057902C003C002C0017BFF7A8478
:1041130079D2900833EBF0A3EAF0A3E9F0D001D011
:1041230002D003127903900783E0FEA3E0FFC3EFFD
:104133009401EE648094804013900783E0FEA3E033
:10414300FFD3EF9406EE6480948040287B017A04C9
:10415300799EC003C002C0017BFF7A8479B29008C4
:1041630033EBF0A3EAF0A3E9F0D001D002D00312BD
:104173007903806C900783E0FEA3E0FFEF64014EB8
:1041830070287B017A04799EC003C002C0017BFFC3
:104193007A8479D9900833EBF0A3EAF0A3E9F0D05D
:1041A30001D002D00312790380367B017A04799E11
:1041B300C003C002C0017BFF7A8479DF900833EB30
:1041C300F0A3EAF0A3E9F0900783E0FEA3E0FF90F9
:1041D3000836EEF0A3EFF0D001D002D0031279033A
:1041E300900785E0FEA3E0FFC3EF9401EE648094A3
:1041F300804013900785E0FEA3E0FFD3EF9402EE27
:104203006480948040287B017A0479C6C003C0028D
:10421300C0017BFF7A8479B2900833EBF0A3EAF014
:10422300A3E9F0D001D002D003127903806A90078A
:1042330085E0FEA3E0FFEF64014E70287B017A0462
:1042430079C6C003C002C0017BFF7A8479E390087A
:1042530033EBF0A3EAF0A3E9F0D001D002D00312CC
:1042630079038034900785E0FEA3E0FFEF64024EFC
:1042730070267B017A0479C6C003C002C0017BFFAC
:104283007A8479E9900833EBF0A3EAF0A3E9F0D05C
:1042930001D002D003127903900787E0FEA3E0FF69
:1042A300C3EF9401EE648094804013900787E0FE8F
:1042B300A3E0FFD3EF940CEE6480948040297B014C
