:10D44D009009F0E5BFF012D8CB12D92812D91812D5
:10D45D00D8D512D8DF12D8E912D8FD12D89A12D920
:10D46D001C12D92012D66112D70112D72312D8F36C
:10D47D0012D8A712D92412D8389009F0E0FF8FBF27
:01D48D00227C
:0AD8CB0075BF0053D9BF75D90022C4
:01D9280022DC
:04D9180075DE08228E
:0AD8D50075A46C75F17F75D4FF2275
:0AD8DF0075A5C975F2FB75D5FC2292
:0AD8E90075A60175F30175D6FF2244
:07D8FD0075E24075E3012212
:0DD89A0075BC2875BA1F75BB0F43E88022CE
:04D91C0043B20322ED
:04D9200075A90322C0
:10D661009009F1E588F05388AF758CE1758DFC75F3
:10D671008B189009F1E0FFEF5440FF9009F1E0FEB3
:0AD68100EE5410FEEE4FFFEF42885A
:01D68B00227C
:10D70100E5C85404FF9009F2EFF053C8FB75CDFF53
:10D7110075CCB075CBFF75CAB09009F2E0FFEF424E
:01D72100C83F
:01D7220022E4
:10D72300E5915404FF9009F3EFF05391FB7595FFD6
:10D733007594D87593FF7592D89009F3E0FFEF4283
:01D743009154
:01D7440022C2
:0AD8F300758E0275891143884522E5
:0DD8A70075AC4175B5FF75B4CC43D21022AD
:04D9240075E46C2218
:10D8380075E68875F68075A8AA75B82175E702752A
:03D84800F70222C2
:0300000002C962D0
:0EC96200787FE4F6D8FD758143C20102C9ABAF
:03400000000000BD
:01D9290000FD
:10D50700496E697469616C697A652E2E2E00506CBC
:10D51700656173652E2E2E00436F6E6E65637420F2
:10D52700446576696365005468656E20506F77655A
:0AD5370072204F6E212121212100F6
:10D2AE009009F4EFF09009F4E0FFEF30E101009007
:10D2BE0009F4E0FFEF30E201009009F4E0FFEF30F7
:10D2CE00E501009009F4E0FFEF30E30312D7DA90A6
:10D2DE0009F4E0FFEF30E40312CB8E9009F4E0FF87
:08D2EE00EF30E50312D92A22FA
:10992F0012D44D12D2F612D54112CE7D12D01A1288
:10993F00C33912D68C12AA2612CFB77F0012C67760
:10994F007F0112CEE87BFF7A6879907D007C007FE3
:10995F00007E0012828D7BFF7AD579077D2D7C00EA
:10996F007F147E0012BF9A12A4BB12ACA112D4CCEA
:10997F0012C3E09008E8E0FEA3E0FFEF20E203024D
:10998F009A129007ADE0FEA3E0FFEF64014E701C4A
:10999F009008E7E0FFEF4402FF9008E7EFF07BFF4E
:1099AF007AAD79C07D0112CE0F029ACF9007ADE04C
:1099BF00FEA3E0FFEF64024E701C9008E7E0FFEF9C
:1099CF004404FF9008E7EFF07BFF7AAE79D17D0179
:1099DF0012CE0F029ACF9007ADE0FEA3E0FFEF6427
:1099EF00034E6003029ACF9008E7E0FFEF4420FF99
:1099FF009008E7EFF07BFF7AAF79E07D0112CE0F91
:109A0F00029ACF9008E8E0FEA3E0FFEF30E11C9050
:109A1F0008E7E0FFEF4408FF9008E7EFF07BFF7ADD
:109A2F007E79F27D0112CE0F029ACF9008E8E0FE08
:109A3F00A3E0FFEF30E01B9008E7E0FFEF4410FFDB
:109A4F009008E7EFF07BFF7AB079EF7D0112CE0F30
:109A5F00806E9008E8E0FEA3E0FFEF30E32590086A
:109A6F00E7E0FFEF4420FF9008E7EFF0E59154FBAC
:109A7F00FFEF4404F5917BFF7AB7792E7D0112CE6B
:109A8F000F803D7F0012C6777BFF7AD579157D0A4F
:109A9F007C007F0A7E0012BF9A7BFF7AD5791F7DEB
:109AAF00197C007F0A7E0012BF9A7BFF7AD5792E30
:109ABF007D287C007F0A7E0012BF9A12A4BB80FE15
:109ACF009008E6E0FEA3E0FF12D2AEAF12EF75F002
:109ADF0003A42413F8860308E6FA08E6F989828AB4
:099AEF00837F0212647180D82209
:10D2F6007542007543009008E6E4F0A3E4F0900858
:10D30600E8E4F0A3E4F09008DAE4F0A3E4F090088F
:10D31600DCE4F0A3E4F09008DEE4F0A3E4F0900887
:10D32600E0E4F0A3E4F09008E2E4F0A3E4F090086F
:07D33600E4E4F0A3E4F0229F
:08CB09009009BAEEF0A3EFF071
:10CB11009009BCE4F09009BAE0FEA3E0FFE5432FE1
:10CB2100FFE5423EFE9009BDEEF0A3EFF09009BA99
:10CB3100E0FEA3E0FF9009BDE0FCA3E0FDC3ED9F93
:10CB4100EC9E50069009BC7401F09009BCE0FFEF27
:10CB5100B401259009BAE0FEA3E0FFC374FF9FFF73
:10CB610074FF9EFED3E5439FE5429E400400008092
:10CB7100D99009BCE4F080D29009BDE0FEA3E0FFAA
:0CCB8100C3E5439FE5429E40C12280BEF8
:01CB8D002285
:03001B0002D263AB
:10D26300C0E0C0F0C083C082C0D075D000C000C091
:10D2730001C002C003C004C005C006C007C28F7549
:10D283008DFC758B180543E5437002054212A77E9A
:10D29300D007D006D005D004D003D002D001D000EF
:0BD2A300D0D0D082D083D0F0D0E03299
:10CE7D009007B2E4F09009F5E4F09009F5E0FFEFCA
:10CE8D00C39418501E9009F5E0FFEF25E0247FF5BF
:10CE9D0082E43407F583E4F0A3E4F09009F5E004AF
:10CEAD00F080D79007E77401F09007AFE4F090079A
:10CEBD007EE4F09007E37401F09007E47401F075DF
:10CECD002900752A00752700752800752200752325
:0ACEDD00007524007525007526007D
:01CEE7002228
:10ACA100C289C2A8000000000000000000000000EE
:10ACB1000000000000000000000000000000000093
:10ACC10000000000C284E5A454EFFFEF4410F5A496
:10ACD100E5F154EFFFEF4410F5F19007E77401F04F
:10ACE1009007AFE4F0D28DC3E52A9402E5299400E0
:10ACF10040F5C28C53A4EFE5F154EFFFEF4410F59A
:10AD0100F1D28400000000000000000000000000FB
:10AD11000000000000000000000000000000000032
:10AD2100000000C289D2A89007E7E4F09007AF7451
:10AD310001F07FB07E0412CB09C289C2A8000000D5
:10AD41000000000000000000000000000000000002
:10AD510000000000000000000000000000C284E5C7
:10AD6100A454EFFFEF4410F5A4E5F154EFFFEF44D5
:10AD710010F5F19007E7E4F09007AFE4F09009F6E1
:10AD81007401F09009F6E0FFEFC394105030900980
:10AD9100F6E0FFEF25E0247FF582E43407F583E058
:10ADA100FEA3E0FFEF4E600E9008E9E0FFEF4404E0
:0EADB100FF9008E9EFF09009F6E004F080C58D
:01ADBF002271
:03000B0002B62B0F
:10B62B00C0E0C083C082C0D075D000C005C006C0CA
:10B63B0007C28CC28D9007AFE0FFEF6042E5282474
:10B64B00FFFFE52734FFFE9007E3E0FDED25E02447
:10B65B007FF582E43407F583EEF0A3EFF09007E378
:10B66B00E0FFEFB4170A9007AFE4F09007E3E4F0C4
:10B67B009007E3E004F075270075280002B71F90D0
:10B68B0007E7E0FFEF707B9007E4E0FFEFD3940F49
:10B69B00403C90077EE004F090077EE0FFEFC39400
:10B6AB0013500A758C3D758AB0D28C806775250056
:10B6BB007526009007E47401F090077EE4F0900784
:10B6CB00B2E0FFEF54DFFF9007B2EFF08046900738
:10B6DB00E4E0FFEF25E024B3F582E43407F583E0E3
:10B6EB00FEA3E0FFEF2401F526EE3400F5259007CD
:10B6FB00E4E004F0758C80758A00D28CC2CFD2CA7C
:10B70B008012752500752605758C80758A00D28C84
:10B71B00C2CFD2CAD007D006D005D0D0D082D0832A
:03B72B00D0E03239
:03002B0002CF50B1
:10CF5000C0E0C083C082C0D075D000C000C007C28E
:10CF6000CFC3E5249526E5256480F8E52364809801
:10CF7000501AE5227007D284752201802DC2847573
:10CF800022000524E52470020523801E9007E7E0B7
:10CF9000FFEF6008052AE52A70020529C2CA752339
:10CFA00000752400752500752600D007D000D0D06C
:07CFB000D082D083D0E032F3
:0300030002D40B19
:10D40B00C0E0C083C082C0D075D000C00730842775
:10D41B0000000000000000000030841B208C1090E6
:10D42B0007AFE0FFEF6008758CB1758AE0D28C0511
:10D43B0028E52870020527D007D0D0D082D083D022
:02D44B00E032CD
:10C9F0009009BFEBF0A3EAF0A3E9F09009C2EDF0D3
:10CA00009007E5E4F0A3E4F09009C3E4F09009C2D4
:10CA1000E0FF9009C3E0FEEEC39F50349009BFE0F1
:10CA2000FBA3E0FAA3E0F99009C3E0FF75F002EF81
:10CA3000A4F58285F0831261A3FFAEF09007E6E0D3
:10CA40002FF09007E5E03EF09009C3E004F080BDD0
:10CA50009007B0E0FEA3E0FF9007E5E0FCA3E0FD57
:10CA6000ED6F7002EC6E60139007E5E0FEA3E0FF4F
:0DCA70009007B0EEF0A3EFF07F01227F00F1
:01CA7D002296
:10D0CA009009C4EBF0A3EAF0A3E9F09009C7EDF0E8
:10D0DA009009C8E4F09009C8E4F09009C7E0FF900D
:10D0EA0009C8E0FEEEC39F502B9009C4E0FBA3E001
:10D0FA00FAA3E0F99009C8E0FF8F827583001260F5
:10D10A001BFF8FD3E5D230E1FB53D2FD9009C8E073
:04D11A0004F080C6D7
:01D11E0022EE
:10D5AD0090081E748DF090081F7401F0900820747F
:10D5BD00FFF090081FE0FF90081EE0FEEE2FFF9099
:0DD5CD000820E0FEEF2EFF900821EFF02275
:109AF80090081E748DF090081F740AF0900807E013
:109B0800FEA3E0FFEF75F064A4FF9007EBE0FCA371
:109B1800E0FDAE05EF2EFF900820EFF0900809E079
:109B2800FEA3E0FFEF75F064A4FF9007EDE0FCA34F
:109B3800E0FDAE05EF2EFF900821EFF0900805E05C
:109B4800FEA3E0FFEF75F064A4FF9007EFE0FCA32D
:109B5800E0FDAE05EF2EFF900822EFF0900807E039
:109B6800FEA3E0FFEF75F064A4FF9007F1E0FCA30B
:109B7800E0FDAE05EF2EFF900823EFF0900809E016
:109B8800FEA3E0FFEF75F064A4FF9007F3E0FCA3E9
:109B9800E0FDAE05EF2EFF900824EFF0900805E0F9
:109BA800FEA3E0FFEF75F064A4FF9007F5E0FCA3C7
:109BB800E0FDAE05EF2EFF900825EFF09007F7E0E7
:109BC800FEA3E0FFEF2414FF900826EFF09007F9BA
:109BD800E0FEA3E0FFEF2414FF900827EFF09007C2
:109BE800FDE0FEA3E0FFEF25E025E0FF9007FBE0A6
:109BF800FCA3E0FDAE05EE4FFF9007FFE0FCA3E0FD
:109C0800FDAE05EEC454F0FEEE4FFF900803E0FCF5
:109C1800A3E0FDAE05EEC4333354C0FEEE4FFF9013
:109C28000828EFF09007E9E0FEA3E0FFEF25E02524
:109C3800E0FF90080BE0FCA3E0FDAE05EEC454F095
:109C4800FEEE4FFF900801E0FCA3E0FDAE05EE4FED
:109C5800FF900829EFF090081FE0FF90081EE0FE33
:109C6800EE2FFF900820E0FEEF2EFF900821E0FE87
:109C7800EF2EFF900822E0FEEF2EFF900823E0FE73
:109C8800EF2EFF900824E0FEEF2EFF900825E0FE5F
:109C9800EF2EFF900826E0FEEF2EFF900827E0FE4B
:109CA800EF2EFF900828E0FEEF2EFF900829E0FE37
:099CB800EF2EFF90082AEFF022C4
:10913E00900813E0FFEFD39464400B900807E4F01F
:10914E00A37401F08013900813E0FFEFD3946450E2
:10915E0008900807E4F0A3E4F0900814E0FFEFD3C2
:10916E009464400B900809E4F0A37401F08013900E
:10917E000814E0FFEFD394645008900809E4F0A3BC
:10918E00E4F0900815E0FFEFD39464400B900805CF
:10919E00E4F0A37401F08013900815E0FFEFD39470
:1091AE00645008900805E4F0A3E4F0900807E0FE90
:1091BE00A3E0FF7C007D641260AF900813E0FD7C9D
:1091CE0000C3ED9FFFEC9EFE9007EBEEF0A3EFF0D9
:1091DE00900807E0FEA3E0FF7C007D641260AF9074
:1091EE000816E0FD7C00C3ED9FFFEC9EFE9007F19C
:1091FE00EEF0A3EFF0900809E0FEA3E0FF7C007D07
:10920E00641260AF900814E0FD7C00C3ED9FFFEC8C
:10921E009EFE9007EDEEF0A3EFF0900809E0FEA39E
:10922E00E0FF7C007D641260AF900817E0FD7C00CB
:10923E00C3ED9FFFEC9EFE9007F3EEF0A3EFF090D0
:10924E000805E0FEA3E0FF7C007D641260AF90088D
:10925E0015E0FD7C00C3ED9FFFEC9EFE9007EFEE48
:10926E00F0A3EFF0900805E0FEA3E0FF7C007D6424
:10927E001260AF900818E0FD7C00C3ED9FFFEC9EDE
:10928E00FE9007F5EEF0A3EFF0900819E0FF7E00D8
:10929E00EF24ECFFEE34FFFE9007F7EEF0A3EFF0B5
:1092AE0090081AE0FF7E00EF24ECFFEE34FFFE90F4
:1092BE0007F9EEF0A3EFF090081BE0FF7E007E00B2
:1092CE00EF5403FF9007FBEEF0A3EFF090081BE0C6
:1092DE00FFEF1313543FFF7E007E00EF5403FF9009
:1092EE0007FDEEF0A3EFF090081BE0FFEFC4540F64
:1092FE00FF7E007E00EF5403FF9007FFEEF0A3EF1A
:10930E00F090081BE0FFEFC413135403FF7E007EA2
:10931E0000EF5403FF900803EEF0A3EFF090081C4B
:10932E00E0FF7E007E00EF5403FF900801EEF0A3F5
:10933E00EFF090081CE0FFEF1313543FFF7E007E0A
:10934E0000EF5403FF9007E9EEF0A3EFF090081C36
:10935E00E0FFEFC4540FFF7E007E00EF5403FF903A
:08936E00080BEEF0A3EFF02262
:10C1DB009009E4E4F09009E5E4F0900812E0FF7EAA
:10C1EB0000EF2402FFEE3400FE9009E4E0FD7C003A
:10C1FB00C3ED9FEE6480F8EC648098501F9009E4C7
:10C20B00E0FF74112FF582E43408F583E0FF900909
:10C21B00E5E02FF09009E4E004F080BE9009E4E043
:10C22B00FF74112FF582E43408F583E0FF9009E5E4
:10C23B00E0FEEE6F704D900811E0FFEFB4D8219047
:10C24B000812E0FFEFB40118900813E0FFEFB4CC35
:10C25B000F9007E8E0FFEF54FDFF9007E8EFF022A7
:10C26B00900811E0FFEFB4D81A900812E0FFEFB47A
:10C27B000A119007E8E0FFEF54FEFF9007E8EFF09C
:03C28B0012913ECF
:01C28E00228D
:10BECE009009C9EBF0A3EAF0A3E9F09009CCEDF0EC
:10BEDE0090080EE4F0A3E4F09009CDE4F09009CCC4
:10BEEE00E0FF9009CDE0FEEEC39F50349009C9E00B
:10BEFE00FBA3E0FAA3E0F99009CDE0FF75F002EFA5
:10BF0E00A4F58285F0831261A3FFAEF090080FE0D6
:10BF1E002FF090080EE03EF09009CDE004F080BDC9
:10BF2E0090082BE0FEA3E0FF90080EE0FCA3E0FDDE
:10BF3E00ED6F7002EC6E605390080EE0FEA3E0FF12
:10BF4E0090082BEEF0A3EFF09007E8E0FFEF20E172
:10BF5E003A9007E8E0FFEF54FEFF9007E8EFF0900D
:10BF6E0007E8E0FFEF4402FF9007E8EFF0C28AE532
:10BF7E00432432F539E5423400F538C3E5399432BD
:0BBF8E00E53894005003753401D28A9E
:01BF99002285
:10C339009009F7E4F09009F7E0FFEFC3940D501965
:10C349009009F7E0FF741E2FF582E43408F583E4C1
:10C35900F09009F7E004F080DC9009F7E4F0900927
:10C36900F7E0FFEFC3940D50199009F7E0FF74113E
:10C379002FF582E43408F583E4F09009F7E004F03E
:10C3890080DC9009F7E4F09009F7E0FFEFC394121D
:10C39900501E9009F7E0FFEF25E024E9F582E43427
:10C3A90007F583E4F0A3E4F09009F7E004F080D7FF
:10C3B90090082FE4F090082EE4F090082DE4F09016
:10C3C900080DE4F0753700753500753600753400D1
:06C3D90075380075390003
:01C3DF00223B
:10C3E0009009F87432F09007E87401F09009F8E0D1
:10C3F000FFEF6074900810E0FFEFB4010F9008E9C0
:10C40000E0FFEF4401FF9008E9EFF022C28AE53730
:10C41000B40118D3E54394FBE54294FF40060000C5
:10C4200000008003753700D28A80C1C3E54395368A
:10C43000E542953540B6E5432404F536E54234003F
:10C44000F535C3E5369404E535940050037537019E
:10C45000D28A9009F8E014F012D5AD7B017A087900
:10C460001E7D0412D0CA808453A5FEE5F254FEFF5F
:10C47000EF4401F5F2D29053A5FDE5F254FDFFEF34
:06C480004402F5F2D29126
:01C486002293
:10CB8E00900810E0FFEF6008900810E4F012C1DB8F
:10CB9E00C28AE534B40115D3E54394CDE54294FF42
:10CBAE00400400008003753400D28A22C3E5439509
:10CBBE0039E5429538404BE5432432F539E54234A8
:10CBCE0000F538C3E5399432E538940050037534D6
:10CBDE0001D28A9007E8E0FFEF30E00F12D5AD7B6F
:10CBEE00017A08791E7D0412D0CA229007E8E0FF70
:10CBFE00EF30E10E129AF87B017A08791E7D0D1244
:03CC0E00D0CA2267
:0300830002B92E91
:10B92E00C0E0C083C082C0D075D000C006C007E59D
:10B93E00D220E00302BA1A53D2FE90082EE5D3F0BD
:10B94E0090082FE0FFEF701C90082EE0FFEFB4D8A8
:10B95E001390082F7401F090082EE0FF900811EF5D
:10B96E00F002BA1A90082FE0FFEFB4012C90082EC7
:10B97E00E0FFEFC39414502190082F7402F090084A
:10B98E002EE0FF900812EFF090080DE4F090082ED4
:10B99E00E0FF90082DEFF0807390082FE0FFEFB4DA
:10B9AE00023990082DE0FFEFD39400402E90082D21
:10B9BE00E014FFF0EF700690082F7403F090082E3D
:10B9CE00E0FF90080DE0FE74132EF582E43408F5C6
:10B9DE0083EFF090080DE004F0803190082FE0FF27
:10B9EE00EFB4032390082FE4F090082EE0FF9008A8
:10B9FE000DE0FE74132EF582E43408F583EFF0901B
:10BA0E0008107401F0800590082FE4F0D007D006DE
:09BA1E00D0D0D082D083D0E032F8
:10D01A0090086AE4F0A3E4F090086CE4F0A3E4F06A
:10D02A0090086EE4F0A3E4F0900870E4F0A3E4F052
:10D03A00900872E4F0A3E4F0900874E4F0A3E4F03A
:10D04A00900876E4F0A3E4F0900878E4F0A3E4F022
:10D05A0090087AE4F0A3E4F0900865E4F09008649C
:09D06A007401F0900869E4F02261
:10D4CC00D2EC900869E0FFEF60F890086AE0FEA3E8
:10D4DC00E0FFD3EF94D0EE9407401F90086AE0FE73
:10D4EC00A3E0FFC3EF9494EE9411500E9008E9E082
:0BD4FC00FFEF4402FF9008E9EFF02270
:10D7DA00900869E0FFEFB4010F900864E0FFEF6082
:09D7EA0007900864E4F0D2EC227F
:030053000293769F
:10937600C0E0C0F0C083C082C0D075D000C000C0BD
:1093860001C002C003C004C005C006C007C2ED90FC
:109396000865E0FFEF12644793BA0093BF0193C4D8
:1093A6000293C90393CE0493D30593D80693DD079E
:1093B600000093E075BB0E802175BB0D801C75BB4C
:1093C6000C801775BB0B801275BB0A800D75BB0927
:1093D600800875BB02800375BB0FAFBDAEBEE4FC53
:1093E600FD90086012637D7F6C7E6B7D007C009033
:1093F6000860E0F8A3E0F9A3E0FAA3E0FB1262320A
:109406007B007A04790078001262BD900866EEF05F
:10941600A3EFF0900865E0FFEF14FF900868EFF007
:10942600900868E0FFC3EF64809480403F90086630
:10943600E0FCA3E0FD900868E0FFEF3395E0FEEF67
:1094460025E0FFEE33FE746A2FF58274083EF5833D
:10945600E0FEA3E0FFC3ED9FFFEC9EFE900866EEE4
:10946600F0A3EFF0900868E014F080B4900866E08E
:10947600FEA3E0FFD3EF94D0EE9407403B9008663E
:10948600E0FEA3E0FFC3EF9494EE9411502A9008F7
:1094960066E0FCA3E0FD900865E0FFEF3395E0FE93
:1094A600EF25E0FFEE33FE746A2FF58274083EF571
:1094B60083ECF0A3EDF08020900865E0FFEF339594
:1094C600E0FEEF25E0FFEE33FE746A2FF5827408A6
:1094D6003EF583E4F0A3E4F0900865E0FFC3EF6493
:1094E600809487500A900865E004F0D2EC80599089
:1094F600087AE4F0A3E4F0900868E4F0900868E0E5
:10950600FFC3EF648094885034900868E0FFEF331F
:1095160095E0FEEF25E0FFEE33FE746A2FF58274C8
:10952600083EF583E0FEA3E0FF90087BE02FF09075
:10953600087AE03EF0900868E004F080BF90086585
:10954600E4F09008697401F0D007D006D005D00485
:10955600D003D002D001D000D0D0D082D083D0F0BA
:03956600D0E03220
:10D68C00752D00752E00752B00752C96752F057554
:10D69C003078900978E4F0A3E4F090097AE4F0A3F0
:0BD6AC00E4F090097CE4F0A3E4F0221D
:0FD87D009008E9E0FFEF4408FF9008E9EFF02280
:01D92A0022DA
:03007300029E8862
:109E8800C0E0C0F0C083C082C0D075D000C000C0A0
:109E980004C005C006C007C3E52E9530E52D952FF3
:109EA800500FD3E52E952CE52D952B400CC28480C0
:109EB80008D284752D00752E00052EE52E7002053A
:109EC8002D53917F900978E0FEA3E0FFEF4E6003E9
:109ED800029F740532E5327002053190097CE0FE7C
:109EE800A3E0FF7C007D281260AFC3E49FFFE49EDF
:109EF800FEEF24C4FFEE3409FED3E5329FE5319E20
:109F0800500302A016E533602190097BE004F0704D
:109F18000690097AE004F090097AE0FEA3E0FFEFEA
:109F280064324E7026753300802190097BE024FF4F
:109F3800F090097AE034FFF090097AE0FEA3E0FFA0
:109F4800EFB4CE07EEB4FF0375330190097AE0FE53
:109F5800A3E0FFEF2496F52CEE3400F52B9009B51D
:109F68007406F075310075320002A016900978E089
:109F7800FEA3E0FFEF64014E701590097AE0FEA39E
:109F8800E0FFEF2496F52CEE3400F52B02A0169096
:109F98000978E0FEA3E0FFEF64024E701C90097A96
:109FA800E4F0A3E4F090097AE0FEA3E0FFEF249642
:109FB800F52CEE3400F52B8055900978E0FEA3E0EF
:109FC800FFEF64034E701D90097AE4F0A37432F039
:109FD80090097AE0FEA3E0FFEF2496F52CEE34001A
:109FE800F52B802A900978E0FEA3E0FFEF64044E89
:109FF800701C90097A74FFF0A374CEF090097AE08F
:10A00800FEA3E0FFEF2496F52CEE3400F52BD007E5
:10A01800D006D005D004D000D0D0D082D083D0F0E4
:03A02800D0E03253
:10649A00B9CC00FE02EA2A2A3E2A2AEA02FE000FA4
:1064AA000405050505050505040FB6A8000C14D456
:1064BA001414F6949494140C0008040304080F08A6
:1064CA000808080800000000000000081C3E7F00C1
:1064DA00007F3E1C0800002466E76624002063E370
:1064EA0063200004C6C7C604001C001C001C00066A
:1064FA00090906000060600000001C22414F492281
:10650A001C00243E20001C003A2A2E001C002A2AC5
:10651A003E000060505048484444447C000000005B
:10652A000000000000000000000000000000000061
:10653A000000000000000000000000000000000051
:10654A000000000000000000000000000000000041
:10655A000000000000000000000000000000000031
:10656A000000000000000000000000000000000021
:10657A000000000000000000000000000000000011
:10658A000000000000000000000000006F6F000023
:10659A0000000700070000147F147F1400242A7FDC
:1065AA002A1200231308646200364955225000005B
:1065BA000706000000001C224100000041221C00C6
:1065CA000014083E08140008083E0808000000A04D
:1065DA006000000808080808000060600000002049
:1065EA0010080402003E5149453E0000427F400027
:1065FA00004261514946002141454B3100181412AD
:10660A007F10002745454539003C4A494930000179
:10661A007109050300364949493600064949291EC8
:10662A00000036360000000056360000000814222A
:10663A00410000141414141400412214080000022A
:10664A000151090600324959513E007C1211127C4F
:10665A00007F49494936003E41414122007F41417C
:10666A00221C007F49494941007F09090901003E6E
:10667A004149497A007F0808087F0000417F4100AC
:10668A00002040413F01007F08142241007F404022
:10669A004040007F020C027F007F0408107F003E0A
:1066AA004141413E007F09090906003E4151215EF0
:1066BA00007F091929460046494949310001017FED
:1066CA000101003F4040403F001F2040201F003F83
:1066DA004038403F00631408146300070870080735
:1066EA0000615149454300007F41410000552A5548
:1066FA002A55000041417F000004020102040040C3
:10670A0040404040000006070000002054545478DE
:10671A00007F484444380038444444200038444404
:10672A00487F00385454541800087E0901020018A2
:10673A00A4A4A47C007F080404780000447D4000DF
:10674A00004080847D00007F102844000000417FC3
:10675A004000007C04180478007C0804047800389F
:10676A004444443800FC242424180018242418FC27
:10677A00007C0804040800485454542000043F4490
:10678A004020003C4040207C001C2040201C003C53
:10679A004030403C004428102844001CA0A0A07CA3
:1067AA00004464544C440000083E41000000007E4E
:1067BA00000000413E0800000010081010081F11D8
:1067CA001F00091F010017151D0015151F001D04C4
:1067DA001F001D1517001F15170010101F001F1589
:1067EA001F001D151F000100000004040404070413
:1067FA00070407000F0107010F0000000000040E44
:10680A000400010618000A0000000A0000000A003D
:10681A0000000A0000000A0000000F140F001F15F4
:10682A000F001F1111001F110E001F1515001F1454
:10683A0014001F1117001F041F00001F000003018E
:10684A001F001F041B001F0101001F081F001F0E4D
:10685A001F000E110E001F141C001F110E001F1620
:10686A001D001D151700101F10001F011F001E011B
:10687A001E001F021F001B041B0018071800131517
:10688A00190013151900424D4004000000000000D1
:10689A003E000000280000008000000040000000C8
:1068AA00010001000000000002040000120B0000B9
:1068BA00120B00000000000000000000FFFFFF00B4
:1068CA0000000000000000000000000000000000BE
:1068DA0000000000000000000000000000000000AE
:1068EA00000000000000000000000000000000009E
:1068FA00000000000000000000000000000000008E
:10690A00000000000000000000000000000000007D
:10691A00000000000000000000000000000000006D
:10692A00000000000000000000000000000000005D
:10693A00000000000000000000000000000000004D
:10694A00000000000000000000000000000000003D
:10695A00000000000000000000000000000000002D
:10696A00000000000000000000000000000000001D
:10697A00000000000000000000000000000000000D
:10698A0000000000000000000000000000000000FD
:10699A0000000000000000000000000000000000ED
:1069AA0000000000000000000000000000000000DD
:1069BA0000000000000000000000000000000000CD
:1069CA0000000000000000000000000000000000BD
:1069DA0000000000000000000000000000000000AD
:1069EA00000000000000000000000000000000009D
:1069FA00000000000000000000000000000000008D
:106A0A00000000000000000000000000000000007C
:106A1A00000000000000000000000000000000006C
:106A2A0000000000000000FFC07C3E1E3C7F9CE787
:106A3A0000000000000000FFE1FE3E1E38FF9CE758
:106A4A00000000000000007FF3FF1F1F78FFDCE753
:106A5A000000000000000078F3C01F0F78E3DCE7B5
:106A6A0000000000000000787B9F1F0FFCE1CE733E
:106A7A0080000000000000387B9F8F8FFCF1CE73EE
:106A8A00800000000000003C7BC00F871E71EE737F
:106A9A00800000000000003C7BE00F871E70EF7B47
:106AAA00C78000000000003FF9FFBFE7FE70E7FF64
:106ABA00884000000000001FF0FFBFF3FC78F7FFDA
:106ACA0095A000000000001FE03F9FF3F83873FE16
:106ADA001720000000000000000000000000000075
:106AEA0015A00000000000000000000000000000E7
:106AFA001720000000000000000000000E7E7ECE7D
:106B0A00084000000000000000000000067070C687
:106B1A00078000000000000000000000063F30E788
:106B2A000000000000000000000000000733B86306
:106B3A00000000000000000000000000031F9F7F0B
:106B4A000000000000000000000000000300003008
:106B5A000000000000000000000000000FC000302C
:106B6A000000000000000000000000000FE000002C
:106B7A00000000000000000000000000000000000B
:106B8A0000000000000000000000000000000000FB
:106B9A0000000000000000000000000000000000EB
:106BAA0000000000000000000000000000000000DB
:106BBA0000000000000000000000000000000000CB
:106BCA0000000000000000000000000000000000BB
:106BDA0000000000000000000000000000000000AB
:106BEA00000000000000000000000000000000009B
:106BFA00000000000000000000000000000000008B
:106C0A00000000000000000000000000000000007A
:106C1A00000000000000000000000000000000006A
:106C2A00000000000000000000000000000000005A
:106C3A00000000000000000000000000000000004A
:106C4A00000000000000000000000000000000003A
:106C5A00000000000000000000000000000000002A
:106C6A00000000000000000000000000000000001A
:106C7A00000000000000000000000000000000000A
:106C8A0000000000000000000000000000000000FA
:106C9A0000000000000000000000000000000000EA
:106CAA0000000000000000000000000000000000DA
:106CBA0000000000000000000000000000000000CA
:066CCA00000000000000C4
:05D784009009E6EFF042
:10D789009009E6E0FF9009E7EFF09009E7E014FF60
:07D79900F0EFD3940050F300
:01D7A0002266
:07D90400C286C283C2852226
:05D48E009009E8EFF039
:10D493009009E9E4F09009E9E4F09009E9E0FFEF8D
:10D4A300C394085023C2839009E8E0FFEF339285C9
:10D4B3009009E8E0FFEF25E0FF9009E8EFF0D28361
:08D4C3009009E9E004F080D2B9
:01D4CB00223E
:10D745009009F9EFF0C2939009F9E0FF12D784D25E
:10D75500939009F9E0FFEF75F005A4FF12D7842235
:10D85D009009FAEFF0C2829009FAE0FF12D48E22FD
:10D86D009009FBEFF0D2829009FBE0FF12D48E22DB
:10CFB70012D9047FF012D7457FE212D85D7FF012B5
:10CFC700D7847F2C12D85D7FF012D7847F2E12D89A
:10CFD7005D7FF012D7847F2F12D85D7FF012D78440
:10CFE7007F2412D85D7F8112D85D7F1A12D85D7FAA
:10CFF700A212D85D7FC812D85D7FA012D85D7F408E
:10D0070012D85D7FA612D85D7FA412D85D7FAF12BC
:03D01700D85D22BF
:10D84B009009FCEFF09009FCE0FFEF44B0FF12D819
:02D85B005D224C
:10D6DE009009FDEFF09009FDE0FFEF540FFF12D817
:10D6EE005D9009FDE0FFEFC4540FFFEF2410FF1211
:03D6FE00D85D22D2
:10D579009009EAEFF09009EBEDF09009EAE0FFEF8E
:10D5890044B0FF12D85D9009EBE0FFEF540FFF1292
:10D59900D85D9009EBE0FFEFC4540FFFEF2410FFB3
:04D5A90012D85D2215
:05CEE8009009DEEFF0EF
:10CEED009009DFE4F09009E0E4F09009DEE0FFEF57
:10CEFD0060047FFF80027F009009DEEFF09009DF74
:10CF0D00E4F09009DFE0FFEFC3940850359009DF9E
:10CF1D00E0FF12D84B7F0012D6DE9009E0E4F090CE
:10CF2D0009E0E0FFEFC3948050109009DEE0FF129E
:10CF3D00D86D9009E0E004F080E59009DFE004F0A1
:02CF4D0080C0A2
:01CF4F0022BF
:0ED88C009009FEEFF09009FEE0FF12D86D2229
:10D765009009ECEFF09009EDEDF09009ECE0FF1475
:0FD77500F0EF600A9009EDE0FF12D86D80EC2212
:0ACA7E0090096AEFF090096BEDF0EB
:10CA880090096CE4F090096DE4F090096AE0FF7E8B
:10CA9800007C007D061260AF74CE2FF974643EFAF4
:10CAA8007BFF90096EEBF0A3EAF0A3E9F090096C24
:10CAB800E4F090096CE0FFEFC39406504390096ED0
:10CAC800E0FBA3E0FAA3E0F990096CE0FF8F827520
:10CAD800830012601BFF90096DEFF090096BE0FF77
:10CAE800EF600D90096DE0FFEFF4FF90096DEFF036
:10CAF80090096DE0FF12D86D90096CE004F080B2E7
:01CB0800220A
:10D11F0090097EEFF090097FEDF0900980EBF09091
:10D12F00097EE0FF90097FE0FD12D579900981E03B
:10D13F00FBA3E0FAA3E0F9126002FFEF602390096E
:10D14F0081E0FBA3E0FAA3E0F9126002FF900980EF
:10D15F00E0FD12CA7E900982E475F00112614C80E5
:02D16F00CB22D1
:10A4BB00900942E4F0900943E4F0900944E4F0A3DE
:10A4CB00E4F0900946E4F0A3E4F0900948E4F0A32B
:10A4DB00E4F0900944E4F0A3E4F0900944E0FEA317
:10A4EB00E0FFC3EF9408EE9400400302A5FB900934
:10A4FB0046E4F0A3E4F0900946E0FEA3E0FFC3EFCF
:10A50B009480EE9400400302A5EA900944E0FEA378
:10A51B00E0FF74017E00A807088005C333CE33CE5D
:10A52B00D8F9FF900946E0FCA3E0FD74092DF582F4
:10A53B0074003CF583E0FD7C00EE5CFEEF5DFFEF0D
:10A54B004E700302A5D9900943E0FFEF70159009F7
:10A55B0044E0FEA3E0FF900946E0FCA3E0FD12D52A
:10A56B0079802B900948E0FEA3E0FFEF2401FFEE7A
:10A57B003400FE900946E0FCA3E0FDEF6D7002EEA7
:10A58B006C600B900946E0FEA3E0FF12D6DE90094B
:10A59B0044E0FEA3E0FFEF7807C333CE33CED8F908
:10A5AB00FF900946E0FCA3E0FDEF2DFFEE3CFE74AF
:10A5BB00892FF58274003EF583E0FF12D86D900968
:10A5CB0046E0FEA3E0FF900948EEF0A3EFF0900900
:10A5DB0047E004F07006900946E004F002A50190F4
:10A5EB000945E004F07006900944E004F002A4E58C
:10A5FB00900942E4F0900942E0FFEFC394805019B8
:10A60B00900942E0FF74092FF582E43400F583E4EE
:09A61B00F0900942E004F080DC3B
:01A624002213
:10D7A10041048900410004004200050000420007D5
:0CD7B100000042000200004200000000E6
:10CC9300900930EEF0A3EFF0900932ECF0A3EDF041
:10CCA300900934EAF0A3EBF0900938E0FFEFB40108
:10CCB30018900936E0FEA3E0FF900007EEF0A3EF23
:10CCC300F090000474FFF08016900932E0FEA3E0B8
:10CCD300FF900007EEF0A3EFF09000047401F090D2
:10CCE3000930E0FEA3E0FF900005EEF0A3EFF09023
:10CCF3000930E0FEA3E0FF900002EEF0A3EFF09016
:10CD03000934E0FEA3E0FF900000EEF0A3EFF02271
:08A625009009CEEEF0A3EFF066
:10A62D00900007E0FEA3E0FFEF7803CEC313CE1337
:10A63D00D8F9FF9009D0EFF0900007E0FEA3E0FFFE
:10A64D007E00EF5407FF9009D1EFF09009CEE0FEA8
:10A65D00A3E0FFEF4E604F900005E0FEA3E0FF90FA
:10A66D0009D0E0FD75F080EDA4F58285F083E582DB
:10A67D002FF582E5833EF583E5822489F582E58316
:10A68D003400F583C083C082E0FF9009D1E0FE74F1
:10A69D0001A806088002C333D8FCFEEF4EFFD0821E
:10A6AD00D083EFF08050900005E0FEA3E0FF90090D
:10A6BD00D0E0FD75F080EDA4F58285F083E5822F65
:10A6CD00F582E5833EF583E5822489F582E58334C1
:10A6DD0000F583C083C082E0FF9009D1E0FE7401D4
:10A6ED00A806088002C333D8FCFEEEF4FEEF5EFF31
:10A6FD00D082D083EFF0900005E0FEA3E0FF740957
:10A70D002FF58274003EF583C083C082E0FF90096F
:10A71D00D0E0FE7401A806088002C333D8FCFEEF1A
:10A72D004EFFD082D083EFF0900006E004F070066B
:10A73D00900005E004F0900000E0FEA3E0FF900023
:10A74D0005E0FCA3E0FDD3ED9FEC9E4023900002BD
:10A75D00E0FEA3E0FF900005EEF0A3EFF090000403
:10A76D00E0FF7E00900008E02FF0900007E03EF043
:01A77D0022B9
:10C0630090091CEEF0A3EFF090091EECF0A3EDF0A5
:05C07300900920EBF034
:10C07800900921E0FF74017E00A807088005C333FA
:10C08800CE33CED8F9FF900924EEF0A3EFF0900953
:10C0980022E4F0900921E0FF900922E0FEEEC39F20
:10C0A8005074900924E0FEA3E0FFEEC313FEEF13E3
:10C0B800FF900924EEF0A3EFF0900924E0FEA3E03E
:10C0C800FF900920E0FEEF5EFF900923EFF0900952
:10C0D80022E0FF7E0090091CE0FCA3E0FDEF2DFFAD
:10C0E800EE3CFE90091EE0FCA3E0FD900489E0FB15
:10C0F800EB6010900923E0FBEB70047B0180027B6E
:10C10800008005900923E0FB7A0012D3C79009222A
:06C11800E004F002C09BF0
:01C11E0022FE
:10C11F00900926EEF0A3EFF0900928ECF0A3EDF0D4
:05C12F0090092AEBF06D
:10C1340090092BE0FF74017E00A807088005C33333
:10C14400CE33CED8F9FF90092EEEF0A3EFF090098C
:10C154002CE4F090092BE0FF90092CE0FEEEC39F45
:10C16400507490092EE0FEA3E0FFEEC313FEEF131C
:10C17400FF90092EEEF0A3EFF090092EE0FEA3E06D
:10C18400FF90092AE0FEEF5EFF90092DEFF0900981
:10C1940026E0FEA3E0FF90092CE0FD7C0090092836
:10C1A400E0FAA3E0FBED2BFDEC3AFC900489E0FB04
:10C1B400EB601090092DE0FBEB70047B0180027BA7
:10C1C40000800590092DE0FB7A0012D3C790092C5A
:06C1D400E004F002C15777
:01C1DA002242
:10C487009008F9EEF0A3EFF09008FBECF0A3EDF0C5
:08C497009008FDEAF0A3EBF0B0
:10C49F00900903E4F0A37401F0900901E4F0A3E420
:10C4AF00F09008FFE0FEA3E0FF900901E0FCA3E09D
:10C4BF00FDC3ED9FEC9E50669008F9E0FEA3E0FFF0
:10C4CF00C006C007900901E0FEA3E0FF9008FBE063
:10C4DF00FCA3E0FDED2FFDEC3EFC900903E0FEA375
:10C4EF00E0FF9008FDE0FAA3E0FBEA5EFAEB5FFBEA
:10C4FF00D007D00612D3C7900903E0FEA3E0FFEFE9
:10C50F0025E0FFEE33FE900903EEF0A3EFF0900964
:0EC51F0002E004F07006900901E004F0808351
:01C52D0022EB
:10C5D5009009EEE4F0A3E4F09009EEE0FEA3E0FF9D
:10C5E500C3EE940450249009EEE0FEA3E0FF7489A5
:10C5F5002FF58274003EF583E4F09009EFE004F036
:10C6050070069009EEE004F080CE9009EEE4F0A308
:10C61500E4F09009EEE0FEA3E0FFC3EF9480EE9412
:10C625000050249009EEE0FEA3E0FF74092FF58287
:10C6350074003EF583E4F09009EFE004F070069095
:10C6450009EEE004F080CB900489E4F0900004E466
:10C65500F0900005E4F0A3E4F0900007E4F0A3E413
:10C66500F0900002E4F0A3E4F0900000E4F0A3E40D
:01C67500F0D4
:01C6760022A1
:06D91200900489E4F022FC
:05C677009009E1EFF065
:10C67C009009E2E4F0A3E4F09009E1E0FFEF60043C
:10C68C007FFF80027F009009E1EFF09009E2E4F077
:10C69C00A3E4F09009E2E0FEA3E0FFC3EE940450A3
:10C6AC00299009E1E0FF9009E2E0FCA3E0FD748928
:10C6BC002DF58274003CF583EFF09009E3E004F073
:10C6CC0070069009E2E004F080C99009E2E4F0A35E
:10C6DC00E4F09009E2E0FEA3E0FFC3EF9480EE9457
:10C6EC000050259009E2E0FEA3E0FF74092FF582CB
:10C6FC0074003EF58374FFF09009E3E004F07006DB
:08C70C009009E2E004F080CA8C
:01C714002202
:10D3C700900984EEF0A3EFF0900986ECF0A3EDF05E
:10D3D700900988EAF0A3EBF0900984E0FEA3E0FF50
:10D3E700900005EEF0A3EFF0900986E0FEA3E0FFC2
:10D3F700900007EEF0A3EFF0900988E0FEA3E0FFAE
:04D4070012A6252222
:10D1710090094AEEF0A3EFF090094CECF0A3EDF02A
:10D1810090094EEAF0A3EBF090094CE0FEA3E0FF1A
:10D1910090094AE0FCA3E0FDD3ED9FEC9E50229064
:10D1A100094AE475F001126162AFF0FE90094EE0A8
:10D1B100FCA3E0FD900950E0FAA3E0FB12D3C78085
:02D1C100C72283
:10D1C300900952EEF0A3EFF0900954ECF0A3EDF0C8
:10D1D300900956EAF0A3EBF0900956E0FEA3E0FFB6
:10D1E300900954E0FCA3E0FDD3ED9FEC9E50229008
:10D1F3000952E0FEA3E0FF900954E475F0011261C7
:10D2030062ADF0FC900958E0FAA3E0FB12D3C780AB
:02D21300C72230
:108E690090087CEEF0A3EFF090087EECF0A3EDF013
:088E7900900880EAF0A3EBF081
:108E8100900886E4F0A3E4F0900888E4F0A3E4F00D
:108E910090088AE4F0A3E4F090088CE4F0A3E4F0F5
:108EA10090088EE4F0A3E4F0900890E4F0A3E4F0DD
:108EB10090087CE0FEA3E0FF900880E0FCA3E0FDC9
:108EC100C3ED9FFFEC9EFE12D8B4C006C007900808
:108ED1007EE0FEA3E0FF900882E0FCA3E0FDC3ED8D
:108EE1009FFFEC9EFE12D8B4AC06AD07D007D006AA
:108EF100D3ED9FEE6480F8EC64809840067E007F9D
:108F01000180047E007F0090088EEEF0A3EFF090C8
:108F1100088EE0FEA3E0FFEF4E606090087CE0FE6B
:108F2100A3E0FF900886EEF0A3EFF090087EE0FE4C
:108F3100A3E0FF90087CEEF0A3EFF0900886E0FE3E
:108F4100A3E0FF90087EEEF0A3EFF0900880E0FE32
:108F5100A3E0FF900886EEF0A3EFF0900882E0FE18
:108F6100A3E0FF900880EEF0A3EFF0900886E0FE0A
:108F7100A3E0FF900882EEF0A3EFF0900880E0FEFE
:108F8100A3E0FF90087CE0FCA3E0FDD3ED9FEC9E05
:108F9100406090087CE0FEA3E0FF900886EEF0A31D
:108FA100EFF0900880E0FEA3E0FF90087CEEF0A3D4
:108FB100EFF0900886E0FEA3E0FF900880EEF0A3BA
:108FC100EFF090087EE0FEA3E0FF900886EEF0A3AC
:108FD100EFF0900882E0FEA3E0FF90087EEEF0A3A0
:108FE100EFF0900886E0FEA3E0FF900882EEF0A388
:108FF100EFF090087CE0FEA3E0FF900880E0FCA386
:10900100E0FDC3ED9FFFEC9EFE900888EEF0A3EF1C
:10901100F090087EE0FEA3E0FF900882E0FCA3E070
:10902100FDC3ED9FFFEC9EFE12D8B490088AEEF0CE
:10903100A3EFF0900888E0FEA3E0FF7C007D021220
:10904100611690088CEEF0A3EFF0900882E0FEA389
:10905100E0FF90087EE0FCA3E0FDC3ED9FEC9E5095
:109061000B900890E4F0A37401F0800A90089074CA
:10907100FFF0A374FFF0900880E0FEA3E0FF9008EA
:109081007CE0FCA3E0FDD3ED9FEC9E400302913D0B
:1090910090088EE0FEA3E0FFEF4E601D90087EE099
:1090A100FEA3E0FF90087CE0FCA3E0FD900884E0D3
:1090B100FAA3E0FB12D3C7801B90087CE0FEA3E07B
:1090C100FF90087EE0FCA3E0FD900884E0FAA3E0B5
:1090D100FB12D3C790088CE0FEA3E0FF90088AE062
:1090E100FCA3E0FDC3EF9DFFEE9CFE90088CEEF02B
:1090F100A3EFF090088CE0FEA3E0FFC3EE64809440
:10910100805028900890E0FEA3E0FF90087FE02FB8
:10911100F090087EE03EF0900888E0FEA3E0FF902A
:10912100088DE02FF090088CE03EF090087DE0047F
:0C913100F0700690087CE004F0029077DB
:01913D00220F
:10C71500900905EEF0A3EFF0900907ECF0A3EDF01A
:08C72500900909EAF0A3EBF012
:10C72D0090090FE4F0A3E4F0900909E0FEA3E0FF07
:10C73D00900905E0FCA3E0FDD3ED9FEC9E506290C7
:10C74D000907E0FEA3E0FF90090FEEF0A3EFF090D4
:10C75D00090BE0FEA3E0FF90090FE0FCA3E0FDD381
:10C76D00ED9FEC9E502B900905E0FEA3E0FF900994
:10C77D000FE0FCA3E0FD90090DE0FAA3E0FB12D35E
:10C78D00C7900910E004F0700690090FE004F080E6
:10C79D00BE900906E004F07006900905E004F080F3
:01C7AD008704
:01C7AE002268
:10828D00900892EEF0A3EFF0900894ECF0A3EDF0CF
:0B829D00900896EBF0A3EAF0A3E9F0D4
:1082A800900899E4F090089AE4F090089BE4F0A311
:1082B800E4F090089DE4F0A3E4F0900896E0FBA3B6
:1082C800E0FAA3E0F975820A75830012601BFF7E4D
:1082D8000090089FEEF0A3EFF0900896E0FBA3E073
:1082E800FAA3E0F975821375830012601BFF7E0004
:1082F800EF7F00FE900896E0FBA3E0FAA3E0F97593
:10830800821275830012601BFD7C00EE4CFEEF4D5F
:10831800FF9008A1EEF0A3EFF0900896E0FBA3E031
:10832800FAA3E0F975821775830012601BFF7E00BF
:10833800EF7F00FE900896E0FBA3E0FAA3E0F97552
:10834800821675830012601BFD7C00EE4CFEEF4D1B
:10835800FF9008A3EEF0A3EFF0900892E0FEA3E0F0
:10836800FFC006C007900894E0FCA3E0FDC004C06D
:10837800059008A1E0FEA3E0FF900892E0FCA3E0CE
:10838800FDED2FFFEC3EFEEF24FFFBEE34FFFA90ED
:1083980008A3E0FEA3E0FF900894E0FCA3E0FDED55
:1083A8002FFFEC3EFEEF24FFFFEE34FFFE90093670
:1083B800EEF0A3EFF09009387401F0D005D004D0A6
:1083C80007D00612CC93900896E0FBA3E0FAA3E04E
:1083D800F975821C75830012601BFFEF640160034E
:1083E80002850F90089DE4F0A3E4F09008A3E0FE56
:1083F800A3E0FF90089DE0FCA3E0FDC3ED9FEC9E89
:10840800400302850F900899E4F090089BE4F0A3DC
:10841800E4F09008A1E0FEA3E0FF90089BE0FCA335
:10842800E0FDC3ED9FEC9E5063900899E0FFEF706C
:108438002B900896E0FBA3E0FAA3E0F990089FE4EC
:1084480075F001126162AFF0FE8F828E8312601B9D
:10845800FF90089AEFF09008997480F0900899E0DE
:10846800FF90089AE0FEEE5FFF7E0012A6259008B6
:1084780099E0FFEFC313FF900899EFF090089CE094
:1084880004F0700690089BE004F0808690089BE05A
:10849800FEA3E0FFEF2407FFEE3400FEEF7803CEE3
:1084A800C313CE13D8F9FF90089BEEF0A3EFF0901A
:1084B800089BE0FEA3E0FF7E00EF5403FFEF4E6051
:1084C80035900896E0FBA3E0FAA3E0F990089FE452
:1084D80075F001126162AFF0FE8F828E8312601B0D
:1084E800FF90089AEFF090089CE004F0700690085E
:1084F8009BE004F080B990089EE004F070069008B4
:108508009DE004F00283F3900896E0FBA3E0FAA351
:10851800E0F975821C75830012601BFFEF64086028
:10852800030285AF90089DE4F0A3E4F09008A3E06F
:10853800FEA3E0FF90089DE0FCA3E0FDC3ED9FECE7
:108548009E506490089BE4F0A3E4F09008A1E0FE3C
:10855800A3E0FF90089BE0FCA3E0FDC3ED9FEC9E29
:108568005035900896E0FBA3E0FAA3E0F990089F45
:10857800E475F001126162AFF0FE8F828E831260A3
:108588001BFF7E0012A62590089CE004F070069060
:10859800089BE004F080B490089EE004F070069018
:0785A800089DE004F080854E
:0185AF0022A9
:10A1CA009008EAEEF0A3EFF09008ECECF0A3EDF0C3
:05A1DA009008EEEBF01F
:10A1DF009008F4E4F09008F51263890000000090F5
:10A1EF0008F4E4F09008EEE0FF9008F4E0FEEEC310
:10A1FF009F400302A3439008F0E0FFEFD394085071
:10A20F000302A2909008EEE0FF7E009008F4E0FDBC
:10A21F007C00ED2FFFEC3EFE9008F1E0FBA3E0FA8F
:10A22F00A3E0F98F828E8312601BFFE4FCFDFE78A2
:10A23F000812636AC004C005C006C0079008F1E0A9
:10A24F00FBA3E0FAA3E0F99008F4E0FF8F82758397
:10A25F000012601BFFAB07E4FAF9F8D007D006D065
:10A26F0005D004EF4BFFEE4AFEED49FDEC48FC90A4
:10A27F0008EFE0F9A80112636A9008F512637D8078
:10A28F003A9008F1E0FBA3E0FAA3E0F99008F4E0BC
:10A29F00FF8F8275830012601BFF7E009008EFE036
:10A2AF00FDEFA805088005C333CE33CED8F9FFEEF6
:10A2BF003395E0FDFC9008F512637D900489E0FF73
:10A2CF00EF60179008F5E0FCA3E0FDA3E0FEA3E02C
:10A2DF00FF12634F9008F512637D9008F4E0FF7E44
:10A2EF00009008EAE0FCA3E0FDEF2DFFEE3CFEC07E
:10A2FF0006C0079008ECE0FCA3E0FDC004C0059089
:10A30F0008F5E0FCA3E0FDA3E0FEA3E0FFAB07AA86
:10A31F00069008F0E0FF7E009008FFEEF0A3EFF04C
:10A32F00D005D004D007D00612C4879008F4E004FB
:04A33F00F002A1F394
:01A3430022F7
:10BDF200900911EEF0A3EFF0900913ECF0A3EDF02F
:05BE0200900915EBF0B2
:10BE0700900916E4F0900917E4F0A3E4F0900915FF
:10BE1700E0FF7E007C007D061260AF74CE2FF974C0
:10BE2700643EFA7BFF900919EBF0A3EAF0A3E9F06F
:10BE3700900916E4F0900916E0FFEFC3940640035B
:10BE470002BECD900919E0FBA3E0FAA3E0F990093F
:10BE570016E0FF8F8275830012601BFF7E00EF756F
:10BE6700F008A4FFAEF0900917EEF0A3EFF09004EE
:10BE770089E0FFEF6016900917E0FEA3E0FFEFF4FB
:10BE8700FFEEF4FE900917EEF0A3EFF0900916E02D
:10BE9700FF7E00900911E0FCA3E0FDEF2DFFEE3CD3
:10BEA700FE900913E0FCA3E0FD900917E0FAA3E078
:10BEB700FB9008FFE4F0A3740BF012C487900916F7
:06BEC700E004F002BE3CA5
:01BECD002252
:10974D009008C9EEF0A3EFF09008CBECF0A3EDF08C
:08975D009008CDEAF0A3EBF047
:109765009008CFE4F0A3E4F09008D1E4F0A3E4F08E
:109775009008D3E4F0A3E4F07B007A007900900828
:10978500D5EBF0A3EAF0A3E9F09008CFE4F0A3E469
:10979500F09008CFE0FEA3E0FFC3EF9402EE940043
:1097A500507B9008CFE0FEA3E0FF90649B75F01A14
:1097B500EF1263CBEE75F01AA42583F583E493FFCE
:1097C5007E00EF7F00FE9008CFE0FCA3E0FD9064F3
:1097D5009A75F01AED1263CBEC75F01AA42583F592
:1097E50083E493FD7C00EF2DFFEE3CFE9008D1EE67
:1097F500F0A3EFF09008CDE0FEA3E0FF9008D1E0E4
:10980500FCA3E0FDED6F7002EC6E60119008D0E0F6
:1098150004F070069008CFE004F00297969008CF08
:10982500E0FEA3E0FF7C007D1A1260AF749C2FF967
:1098350074643EFA7BFF9008D5EBF0A3EAF0A3E948
:10984500F09008CFE4F0A3E4F09008CFE0FEA3E0A9
:0D985500FFC3EF940CEE9400400302992E27
:109862009008D5E0FBA3E0FAA3E0F99008CFE0FE70
:10987200A3E0FFEF240CFFEE3400FE8F828E8312F2
:10988200601BFF7E00EF7F00FE9008D5E0FBA3E0A7
:10989200FAA3E0F99008CFE0FCA3E0FD8D828C836F
:1098A20012601BFD7C00EE4CFEEF4DFF9008D8EEDF
:1098B200F0A3EFF09008D8E0FEA3E0FFEF25E0FF71
:1098C200EE33FE9008D8EEF0A3EFF0900489E0FFAB
:1098D200EF60169008D8E0FEA3E0FFEFF4FFEEF48D
:1098E200FE9008D8EEF0A3EFF09008CFE0FEA3E0E0
:1098F200FF9008C9E0FCA3E0FDED2FFFEC3EFE90D7
:1099020008CBE0FCA3E0FD9008D8E0FAA3E0FB90CE
:0B99120008FFE4F0A37410F012C487FB
:10991D009008D0E004F070069008CFE004F00298B3
:01992D004EEB
:01992E002216
:10BF9A00900971EEF0A3EFF0900973ECF0A3EDF0C5
:10BFAA00900975EBF0A3EAF0A3E9F0900975E0FBBC
:10BFBA00A3E0FAA3E0F9126002FFEF700302C05A8D
:10BFCA00900975E0FBA3E0FAA3E0F9126002FFEF23
:10BFDA00D3947E403E900971E0FEA3E0FF9009737E
:10BFEA00E0FCA3E0FD900975E0FBA3E0FAA3E0F909
:10BFFA00126178FBAAF012974D900972E0240CF0B6
:10C00A00900971E03400F0900976E475F00212614B
:10C01A004C8098900971E0FEA3E0FF900973E0FC60
:10C02A00A3E0FD900975E0FBA3E0FAA3E0F9126032
:10C03A0002FB12BDF2900972E02406F0900971E049
:10C04A003400F0900976E475F00112614C02BFB534
:09C05A00900971E0FEA3E0FF2251
:108B8F009008A5EEF0A3EFF09008A7ECF0A3EDF09E
:088B9F009008A9EAF0A3EBF035
:108BA7009008B67420F09008A9E0FEA3E0FFC3EE9A
:108BB70064809480501F9008B6742DF09008A9E047
:108BC700FEA3E0FFC3E49FFFE49EFE9008A9EEF03A
:108BD700A3EFF080219008A9E0FEA3E0FFD3EF9474
:108BE70000EE64809480400E9008ADE0FFEF6006D1
:108BF7009008B6742BF09008A9E0FEA3E0FF900858
:108C0700AFEEF0A3EFF09008ABE0FFEF7030900805
:108C1700ABE4F09008AFE0FEA3E0FFEF4E601F90DB
:108C270008ABE004F09008AFE0FEA3E0FF7C007D16
:108C37000A1261169008AFEEF0A3EFF080D5900806
:108C4700ACE0FF9008ABE0FEEED39F500D9008AC70
:108C5700E0FFEF04FF9008ABEFF09008ABE0FFEF09
:108C670075F006A4FF9008B3EFF09008ACE0FFEFB3
:108C770060079008B3E02406F09008ADE0FFEF64CA
:108C8700FF60079008B3E02406F09008B1E4F0A372
:108C97007401F09008B4E4F09008ABE0FFEF14FF24
:108CA7009008B4E0FEEEC39F501F9008B1E0FEA30A
:108CB700E0FF7C007D0A1260AF9008B1EEF0A3EFF1
:108CC700F09008B4E004F080CF9008AEE0FFEF60CA
:108CD7001E9008A5E0FEA3E0FF9008B3E0FD7C002E
:108CE700C3EF9DFFEE9CFE9008A5EEF0A3EFF0907A
:108CF70008ADE0FFEF64FF60269008A5E0FEA3E063
:108D0700FF9008A7E0FCA3E0FD9008B6E0FB12BDCA
:108D1700F29008A6E02406F09008A5E03400F09051
:108D270008B5E4F09008B4E4F09008ABE0FF9008D1
:108D3700B4E0FEEEC39F4003028E689008B1E0FCEA
:108D4700A3E0FD9008A9E0FEA3E0FF1261167C00F6
:108D57007D0A1261169008AFECF0A3EDF09008AB16
:108D6700E0FFEF14FF9008B4E0FEEFB506069008A9
:108D7700B57401F09008ABE0FFEF14FF9008ACE08A
:108D8700FEC3EF9EFF9008B4E0FEEF6E70609008A0
:108D9700ACE0FFEF60589008B57401F09008A5E0CB
:108DA700FEA3E0FF9008A7E0FCA3E0FD9008AFE07A
:108DB700FAA3E0FBEB2430FB12BDF29008A6E024F7
:108DC70006F09008A5E03400F09008A5E0FEA3E0C7
:108DD700FF9008A7E0FCA3E0FD7B2E12BDF29008F0
:108DE700A6E02406F09008A5E03400F08053900830
:108DF700AFE0FEA3E0FFEF4E60089008B57401F006
:108E070080129008B5E0FFEF700A9008AF74FFF08A
:108E1700A374F0F09008A5E0FEA3E0FF9008A7E098
:108E2700FCA3E0FD9008AFE0FAA3E0FBEB2430FBE6
:108E370012BDF29008A6E02406F09008A5E03400E1
:108E4700F09008B1E0FEA3E0FF7C007D0A126116F6
:108E57009008B1EEF0A3EFF09008B4E004F0028DB3
:018E670030DA
:018E680022E7
:10CD130090098AEEF0A3EFF090098CECF0A3EDF00C
:05CD230090098EEBF009
:10CD280090098FE4F090098FE4F090098FE0FFEF0D
:10CD3800C39404505390098FE0FF90098EE0FEEEF3
:10CD480025E025E024C8F582E43467F583E5822FE1
:10CD5800F582E43583F583E493FB90098FE0FF7E49
:10CD68000090098AE0FCA3E0FDEF2DFFEE3CFE9069
:10CD7800098CE0FCA3E0FD90092B7405F012C11F9B
:08CD880090098FE004F080A285
:01CD90002280
:10AB710090095AEEF0A3EFF090095CECF0A3EDF030
:10AB810090095EEBF0A3EAF0A3E9F090095EE0FB27
:10AB9100A3E0FAA3E0F9126002FFEF700302ACA098
:10ABA10090095EE0FBA3E0FAA3E0F9126002FF90D6
:10ABB1000961EFF0900961E0FFC3EF648094E14027
:10ABC1001B900961E0FFD3EF648094FA500E900965
:10ABD10061E0FFEF24E0FF900961EFF0900961E08F
:10ABE100FFC3EF648094C1402B900961E0FFD3EF74
:10ABF100648094DA501E90095AE0FEA3E0FF9009A8
:10AC01005CE0FCA3E0FD900961E0FBEB24D6FB12C4
:10AC1100CD138070900961E0FFC3EF648094B04070
:10AC21002B900961E0FFD3EF648094B9501E900925
:10AC31005AE0FEA3E0FF90095CE0FCA3E0FD90096F
:10AC410061E0FBEB24D0FB12CD138038900961E069
:10AC5100FFEFB4201790095AE0FEA3E0FF90095CD2
:10AC6100E0FCA3E0FD7B0F12CD13801890095AE0A0
:10AC7100FEA3E0FF90095CE0FCA3E0FD900961E028
:10AC8100FB12CD1390095FE475F00112614C90093C
:0CAC91005BE02404F090095AE03400F06D
:04AC9D0002AB8C2258
:1088A4009008B7EEF0A3EFF09008B9ECF0A3EDF068
:0888B4009008BBEAF0A3EBF011
:1088BC009008C1E4F0A3E4F09008C3E4F0A3E4F062
:1088CC009008C5E4F09008C6E4F09008C7E4F09076
:1088DC0008C8740FF09008BBE0FEA3E0FFC3EE6481
:1088EC00809480501F9008C8740BF09008BBE0FE79
:1088FC00A3E0FFC3E49FFFE49EFE9008BBEEF0A351
:10890C00EFF080219008BBE0FEA3E0FFD3EF9400D2
:10891C00EE64809480400E9008BFE0FFEF600690FC
:10892C0008C87410F09008BBE0FEA3E0FF9008C1EB
:10893C00EEF0A3EFF09008BDE0FFEF70309008BDB3
:10894C00E4F09008C1E0FEA3E0FFEF4E601F90083A
:10895C00BDE004F09008C1E0FEA3E0FF7C007D0ABE
:10896C001261169008C1EEF0A3EFF080D59008BE0E
:10897C00E0FF9008BDE0FEEED39F500D9008BEE0E6
:10898C00FFEF04FF9008BDEFF09008BDE0FFEF256E
:10899C00E025E0FF9008C5EFF09008BEE0FFEF6027
:1089AC00079008C5E02402F09008BFE0FFEF64FFD9
:1089BC0060079008C5E02404F09008C3E4F0A374A9
:1089CC0001F09008C7E4F09008BDE0FFEF14FF90B1
:1089DC0008C7E0FEEEC39F501F9008C3E0FEA3E063
:1089EC00FF7C007D0A1260AF9008C3EEF0A3EFF09D
:1089FC009008C7E004F080CF9008C0E0FFEF601E45
:108A0C009008B7E0FEA3E0FF9008C5E0FD7C00C332
:108A1C00EF9DFFEE9CFE9008B7EEF0A3EFF09008F0
:108A2C00BFE0FFEF64FF60269008B7E0FEA3E0FF15
:108A3C009008B9E0FCA3E0FD9008C8E0FB12CD1350
:108A4C009008B8E02404F09008B7E03400F09008E7
:108A5C00C7E4F09008BDE0FF9008C7E0FEEEC39FAE
:108A6C004003028B8E9008C3E0FCA3E0FD9008BB92
:108A7C00E0FEA3E0FF1261167C007D0A12611690E5
:108A8C0008C1ECF0A3EDF09008BDE0FFEF14FF90EF
:108A9C0008C7E0FEEFB506069008C67401F0900812
:108AAC00BDE0FFEF14FF9008BEE0FEC3EF9EFF9009
:108ABC0008C7E0FEEF6E705C9008BEE0FFEF6054FC
:108ACC009008C67401F09008B7E0FEA3E0FF900890
:108ADC00B9E0FCA3E0FD9008C1E0FAA3E0FB12CDE5
:108AEC00139008B8E02404F09008B7E03400F0903C
:108AFC0008B7E0FEA3E0FF9008B9E0FCA3E0FD7B23
:108B0C000A12CD139008B8E02402F09008B7E034B4
:108B1C0000F0804E9008C1E0FEA3E0FFEF4E60082D
:108B2C009008C67401F080119008C6E0FFEF700940
:108B3C009008C1E4F0A3740FF09008B7E0FEA3E036
:108B4C00FF9008B9E0FCA3E0FD9008C1E0FAA3E0B7
:108B5C00FB12CD139008B8E02404F09008B7E03471
:108B6C0000F09008C3E0FEA3E0FF7C007D0A1261D8
:108B7C00169008C3EEF0A3EFF09008C7E004F002E3
:028B8C008A5FFE
:018B8E0022C4
:0BD8C000060200020004000500030047
:10CE0F009009D2EBF0A3EAF0A3E9F09009D5EDF089
:10CE1F00751200E512C39403501C7B007A00790051
:10CE2F00AF12EF75F003A42413F8A60308A60208A7
:10CE3F00A601051280DD7512009009D2E0FBA3E078
:10CE4F00FAA3E0F9AF12EF75F003A42413F8A603C9
:10CE5F0008A60208A6019009D5E0FF9009D2E0FBD1
:0ECE6F00A3E0FAA3E0F989828A83126471229B
:10D33D009009D6EBF0A3EAF0A3E9F09009D9EDF04E
:10D34D009009D6E0FBA3E0FAA3E0F9AF12EF75F078
:10D35D0003A42413F8A60308A60208A6019009D970
:10D36D00E0FF9009D6E0FBA3E0FAA3E0F989828AF9
:05D37D0083126471221F
:10D215009009DAEBF0A3EAF0A3E9F09009DDEDF06F
:10D22500E512C3940250369009DAE0FBA3E0FAA3B5
:10D23500E0F90512AF12EF75F003A42413F8A60365
:10D2450008A60208A6019009DDE0FF9009DAE0FBD7
:0ED25500A3E0FAA3E0F989828A8312647122B1
:10D5DA009009FFEFF0E512D394004002151290096A
:10D5EA00FFE0FFAE12EE75F003A42413F8860308D9
:0DD5FA00E6FA08E6F989828A83126471223C
:10AA26009006FAE4F09006FCE4F09006FDE4F0905F
:10AA360006FEE4F09006FBE4F09006FFE4F09005D5
:10AA46008EE4F0900590E4F0900591E4F090059284
:10AA5600E4F090058FE4F0900593E4F0900670E43E
:10AA6600F0900672E4F0900673E4F0900674E4F059
:10AA7600900671E4F0900675E4F0900764E4F090B7
:10AA86000766E4F0900767E4F0900768E4F0900743
:10AA960065E4F0900769E4F0900996E4F09009986F
:10AAA600E4F0900999E4F090099AE4F0900997E4AB
:10AAB600F090099BE4F090099CE4F090099EE4F084
:10AAC60090099FE4F09009A0E4F090099DE4F090CD
:10AAD60009A1E4F09009AEE4F09009B0E4F0900921
:10AAE600B1E4F09009B2E4F09009AFE4F09009B354
:10AAF600E4F09009A8E4F09009AAE4F09009ABE428
:10AB0600F09009ACE4F09009A9E4F09009ADE4F006
:10AB16009009A2E4F09009A4E4F09009A5E4F0906D
:10AB260009A6E4F09009A3E4F09009A7E4F09009DF
:10AB360090E4F0900992E4F0900993E4F09009947F
:10AB4600E4F0900991E4F0900995E4F09009B4E4FA
:10AB5600F09009B6E4F09009B7E4F09009B8E4F093
:0BAB66009009B5E4F09009B9E4F0227A
:0B4E5800900939EBF0A3EAF0A3E9F0A9
:104E6300750800750900750A00750B00750C00754F
:104E73000D00750E00750F00751000751100900977
:104E83003CE0FBA3E0FAA3E0F9758202758300120C
:104E9300601BFF7E00EF2401FFEE3400FE7C007DEB
:104EA300141260AF900939E0FBA3E0FAA3E0F9E93B
:104EB3002FF9EA3EFA90093FEBF0A3EAF0A3E9F0F9
:104EC30090093CE0FBA3E0FAA3E0F9758201758346
:104ED3000012601BFFEF700302581790093CE0FBC0
:104EE300A3E0FAA3E0F975820175830012601BFF4A
:104EF300EF30E05190090BE4F0A3740FF090090D2B
:104F0300E4F0A3E4F07B7F7A007D007C007F007EE9
:104F13000012C715900939E0FBA3E0FAA3E0F912E8
:104F230063F77D017C007F037E0012BF9A900950D6
:104F3300E4F0A37401F07B0F7A007D7F7C007F0097
:104F43007E0012D17190093CE0FBA3E0FAA3E0F9E3
:104F530075820175830012601BFFEF20E20302508C
:104F63009590093CE0FBA3E0FAA3E0F97582047590
:104F7300830012601BFFEFD39409500302500D907E
:104F8300093CE0FBA3E0FAA3E0F975820275830014
:104F930012601BFF7E00EF2401FBEE3400FA900841
:104FA300BD7402F09008BEE4F09008BF74FFF09067
:104FB30008C07401F07D067C007F747E001288A413
:104FC3007B117D067C007F747E0012CD1390093C1B
:104FD300E0FBA3E0FAA3E0F9758204758300126095
:104FE3001BFFEFFB7A009008BD7402F09008BEE44B
:104FF300F09008BF74FFF09008C0E4F07D067C00D9
:105003007F787E001288A402509590093CE0FBA3B0
:10501300E0FAA3E0F975820275830012601BFF7E3C
:1050230000EF2401FBEE3400FA9008BD7402F09007
:1050330008BEE4F09008BF74FFF09008C07401F05C
:105043007D067C007F747E001288A47B117D067C24
:10505300007F747E0012CD1390093CE0FBA3E0FABD
:10506300A3E0F975820475830012601BFFEFFB7ADE
:10507300009008BD7401F09008BEE4F09008BF747E
:10508300FFF09008C0E4F07D067C007F787E00127C
:1050930088A490093CE0FBA3E0FAA3E0F975820140
:1050A30075830012601BFFEF540AFFEF7003025772
:1050B300FF750800751000751110E508C3940340CF
:1050C300030257FF90093CE0FBA3E0FAA3E0F97564
:1050D300820475830012601BFFE508C39F4003022F
:1050E30057FF90093CE0FBA3E0FAA3E0F9758203C4
:1050F30075830012601BFFEF2508F50990093CE05A
:10510300FBA3E0FAA3E0F975820275830012601B2A
:10511300FFE509B507047F0180027F00900489EF52
:10512300F00509750E00750F00E509D394094006D3
:10513300750E00750F0490093CE0FBA3E0FAA3E0B1
:10514300F975820175830012601BFFEF20E10B905C
:105153000489E0FFEF70030257EAE5112401FDE53E
:10516300103400FCE511240FFFE5103400FE900914
:105173000BEEF0A3EFF0900489E0FF7E0090090DA1
:10518300EEF0A3EFF07B7F7A007F017E0012C7155C
:10519300E5112406FDE5103400FCAF09EFFB7A00AE
:1051A3009008BDE4F09008BEE4F09008BF74FFF0EF
:1051B3009008C0E4F07F027E001288A4E50F240665
:1051C300FFE50E3400FEE5112406FDE5103400FC76
:1051D3007B0A12CD13900939E0FBA3E0FAA3E0F9AF
:1051E300AF0975F014EFA4F58285F083126417E517
:1051F3000F2408FFE50E3400FEE5112402FDE5103F
:105203003400FC12BF9AAF097E14EF8EF0A4FFAEF8
:10521300F0900939E0FBA3E0FAA3E0F9E92FF9EAFA
:105223003EFA758203758300126417EA494B6038AE
:10523300900489E0FFEF6019E5112402FDE51034C5
:1052430000FC7BFF7AD879C07F727E0012BF9A8000
:1052530017E5112402FDE5103400FC7BFF7AD879B1
:10526300C37F787E0012BF9AAF097E14EF8EF0A43D
:10527300FFAEF0900939E0FBA3E0FAA3E0F9E92FD0
:10528300F9EA3EFA758211758300126417EA494BF5
:10529300700302532BAF097E14EF8EF0A4FFAEF020
:1052A300900939E0FBA3E0FAA3E0F9E92FF9EA3E1C
:1052B300FA75821175830012641712D8237C007D5E
:1052C300061260AFC374769FF50BE49EF50AAF092F
:1052D3007E14EF8EF0A4FFAEF0900939E0FBA3E05B
:1052E300FAA3E0F9E92FF9EA3EFA75821175830012
:1052F300126417E5112402FDE5103400FCAF0BAE78
:105303000A12BF9A8E0C8F0DE511240EFBE51034A3
:1053130000FA900950E4F0A3E4F0AD0DAC0CAF0B30
:10532300AE0A12D171025695AF097E14EF8EF0A426
:10533300FFAEF0900939E0FBA3E0FAA3E0F9E92F0F
:10534300F9EA3EFA75820D758300126417EA494B38
:105353007003025695AE097C007D14EE75F014A41B
:10536300FFAEF0900939E0FBA3E0FAA3E0F9E92FDF
:10537300F9EA3EFA75820D7583001264171261789B
:10538300FDACF0AF097E14EF8EF0A4FFAEF09009F0
:1053930039E0FBA3E0FAA3E0F9E92FF9EA3EFA7555
:1053A300820B7583001261A3FFAEF0D3ED9FEE6411
:1053B30080F8EC648098405EAF097E14EF8EF0A411
:1053C300FFAEF0900939E0FBA3E0FAA3E0F9E92F7F
:1053D300F9EA3EFA75820B7583001261A3FFAEF002
:1053E300C006C007AE097C007D14EE75F014A4FF5F
:1053F300AEF0900939E0FBA3E0FAA3E0F9E92FF955
:10540300EA3EFA75820D758300126417D007D00641
:10541300EE8FF0126213AE097C007D14EE75F0146A
:10542300A4FFAEF0900939E0FBA3E0FAA3E0F9E9A9
:105433002FF9EA3EFA75820D758300126417126123
:1054430078FDACF0AF097E14EF8EF0A4FFAEF090C0
:105453000939E0FBA3E0FAA3E0F9E92FF9EA3EFA00
:105463007582097583001261A3FFAEF0C3ED9FEE51
:105473006480F8EC648098505EAF097E14EF8EF080
:10548300A4FFAEF0900939E0FBA3E0FAA3E0F9E949
:105493002FF9EA3EFA7582097583001261A3FFAE04
:1054A300F0C006C007AE097C007D14EE75F014A4AD
:1054B300FFAEF0900939E0FBA3E0FAA3E0F9E92F8E
:1054C300F9EA3EFA75820D758300126417D007D08E
:1054D30006EE8FF0126213AF097E14EF8EF0A4FF75
:1054E300AEF0900939E0FBA3E0FAA3E0F9E92FF964
:1054F300EA3EFA758206758300126417EA494B7017
:1055030003025609AF097E14EF8EF0A4FFAEF090AC
:105513000939E0FBA3E0FAA3E0F9E92FF9EA3EFA3F
:10552300758206758300126417C003C002C001AE02
:10553300097C007D14EE75F014A4FFAEF0900939D8
:10554300E0FBA3E0FAA3E0F9E92FF9EA3EFA75825A
:105553000D758300126417126178FFAEF08F828E8F
:105563008374031263BAD001D002D00312641712FA
:10557300D8237C007D061260AFC374769FF50BE4DD
:105583009EF50AAF097E14EF8EF0A4FFAEF09009EA
:1055930039E0FBA3E0FAA3E0F9E92FF9EA3EFA7553
:1055A3008206758300126417C003C002C001AE09EE
:1055B3007C007D14EE75F014A4FFAEF0900939E081
:1055C300FBA3E0FAA3E0F9E92FF9EA3EFA75820DAD
:1055D300758300126417126178FFAEF08F828E8399
:1055E30074031263BAD001D002D003126417E51119
:1055F3002402FDE5103400FCAF0BAE0A12BF9A8EF5
:105603000C8F0D025695AE097C007D14EE75F014D7
:10561300A4FFAEF0900939E0FBA3E0FAA3E0F9E9B7
:105623002FF9EA3EFA75820D758300126417126131
:1056330078FBAAF0C002C003AF097E14EF8EF0A47A
:10564300FFAEF0900939E0FBA3E0FAA3E0F9E92FFC
:10565300F9EA3EFA75821075830012601BFF900809
:10566300ACEFF07E007F5A8E0A8F0BE5112402FD0A
:10567300E5103400FC9008AB7403F09008ADE4F03F
:105683009008AEE4F0D003D002128B8F750C007536
:105693000D7490093CE0FBA3E0FAA3E0F9758205E1
:1056A30075830012601BFFEF70030257EA900489B1
:1056B300E0FFEF70030257EAAE097C007D14EE753C
:1056C300F014A4FFAEF0900939E0FBA3E0FAA3E0E5
:1056D300F9E92FF9EA3EFA75820D75830012641712
:1056E300126178FDACF0AF097E14EF8EF0A4FFAE2B
:1056F300F0900939E0FBA3E0FAA3E0F9E92FF9EA16
:105703003EFA75820B7583001261A3FFAEF0EDB50F
:10571300071EECB5061AE5112402FDE5103400FC62
:105723007BFF7AD879C57F787E0012BF9A0257EA49
:10573300AE097C007D14EE75F014A4FFAEF0900961
:1057430039E0FBA3E0FAA3E0F9E92FF9EA3EFA75A1
:10575300820D758300126417126178FDACF0AF09F6
:105763007E14EF8EF0A4FFAEF0900939E0FBA3E0C6
:10577300FAA3E0F9E92FF9EA3EFA75820975830085
:105783001261A3FFAEF0EDB5071DECB50619E511E7
:105793002402FDE5103400FC7BFF7AD879C77F78BB
:1057A3007E0012BF9A8040E5112402FDE51034000B
:1057B300FC7BFF7AD879C97F787E0012BF9AE50B0C
:1057C30024FFFFE50A34FFFEE50D2401FDE50C345B
:1057D30000FCE511240EFBE5103400FA900950E4B7
:1057E300F0A3E4F012D171900489E4F00508741079
:1057F3002511F511E43510F5100250BD12A4BB902C
:10580300093CE0FBA3E0FAA3E0F97582017583008C
:10581300E412608D90093CE0FBA3E0FAA3E0F97584
:10582300820575830012601BFFEF70030259747FBA
:105833000112D607EF70030258CE90093FE0FBA395
:10584300E0FAA3E0F975820D758300126417EA4943
:105853004B607890093FE0FBA3E0FAA3E0F975827F
:105863000D758300126417126178FFAEF090093F43
:10587300E0FBA3E0FAA3E0F975820B7583001261E4
:10588300A3FDACF0C3EF9DEC6480F8EE6480985008
:105893003A90093FE0FBA3E0FAA3E0F975820D75A6
:1058A3008300126417E475F0011261DB90093CE098
:1058B300FBA3E0FAA3E0F9E92401F9EA3400FA12C0
:1058C3006002FFEF4408FFEF12607B7F0212D607EE
:1058D300EF7003025A6F90093FE0FBA3E0FAA3E0E5
:1058E300F975820D758300126417EA494B70030240
:1058F3005A6F90093FE0FBA3E0FAA3E0F975820D2C
:10590300758300126417126178FFAEF090093FE0CF
:10591300FBA3E0FAA3E0F97582097583001261A382
:10592300FDACF0D3EF9DEC6480F8EE6480985003F7
:10593300025A6F90093FE0FBA3E0FAA3E0F97582F6
:105943000D75830012641774FF75F0FF1261DB900D
:10595300093CE0FBA3E0FAA3E0F9E92401F9EA3406
:1059630000FA126002FFEF4408FFEF12607B025A55
:105973006F7F0112D607EF607690093CE0FBA3E04E
:10598300FAA3E0F975820275830012601BFFEFD35F
:105993009400401890093CE0FBA3E0FAA3E0F975FA
:1059A300820275830074FF126048802D90093CE0E9
:1059B300FBA3E0FAA3E0F975820475830012601B70
:1059C300FFEF14FF90093CE0FBA3E0FAA3E0F975B5
:1059D3008202758300EF12608D90093CE0FBA3E027
:1059E300FAA3E0F9758201758300740612608D7F56
:1059F3000212D607EF607590093CE0FBA3E0FAA31F
:105A0300E0F975820475830012601BFFEF14FF90A9
:105A1300093CE0FBA3E0FAA3E0F975820275830079
:105A230012601BFEEEC39F501890093CE0FBA3E0FD
:105A3300FAA3E0F97582027583007401126048804D
:105A43001590093CE0FBA3E0FAA3E0F97582027527
:105A53008300E412608D90093CE0FBA3E0FAA3E02D
:105A6300F9758201758300740612608D90093CE01C
:105A7300FBA3E0FAA3E0F975820375830012601BB0
:105A8300FF90093CE0FBA3E0FAA3E0F975820275FD
:105A9300830012601BFEEEC39F502A90093CE0FB7B
:105AA300A3E0FAA3E0F975820275830012601BFF7D
:105AB30090093CE0FBA3E0FAA3E0F9758203758348
:105AC30000EF12608D90093CE0FBA3E0FAA3E0F93C
:105AD30075820375830012601BFFEF2402FF900998
:105AE3003CE0FBA3E0FAA3E0F975820275830012A0
:105AF300601BFEEED39F402E90093CE0FBA3E0FA2F
:105B0300A3E0F975820275830012601BFFEF24FE88
:105B1300FF90093CE0FBA3E0FAA3E0F9758203756B
:065B23008300EF12608D0B
:015B29002259
:10BC1600506172616D2045534320004D696E205678
:10BC26006F6C743A004D61782054656D703A004D22
:10BC3600617820437572723A002530322E3266568C
:10BC4600002530322E316643002530322E326641D1
:10BC560000526573657420746F2044656661756C67
:10BC66007400202020596573206F72204E6F3F208C
:10BC7600202000205965733A454E54204E6F3A45B0
:10BC8600585420004861726477617265203A312EFB
:10BC9600302E30004669726D77617265203A312E1A
:10BCA600302E3000536F667477617265203A2564D2
:10BCB6002E302E3000FFBC160000000000000000F1
:10BCC600000300000000000000FFBC21000000008F
:10BCD600000000000000000000000106C6FFBC2BAB
:10BCE6000000000000000000000000000000010647
:10BCF60076FFBC35000000000000000000000000D8
:05BD060000000106B27F
:10A02B009007A1E0FEA3E0FFEF7F00FE90079FE00B
:10A03B00FCA3E0FDEF2DFDEE3CFCEC125DCD7B00B7
:10A04B007A0079807844125D2B7B337A33791178DF
:10A05B0042125C229006F612637D7B017A0679C66A
:10A06B00C003C002C0017BFF7ABC793F900833EB81
:10A07B00F0A3EAF0A3E9F09006F6E0FCA3E0FDA361
:10A08B00E0FEA3E0FF90083612637DD001D002D032
:10A09B0003127AD49007A5E0FEA3E0FFEF7F00FE4A
:10A0AB009007A3E0FCA3E0FDEF2DFDEE3CFCEC12D2
:10A0BB005DCD7B337A3379537840125C227B007A07
:10A0CB000079807844125D2B7BF07AA7794678BFB4
:10A0DB00125B317B007A00797A7844125C227B3DEB
:10A0EB007A0A79377840125D2B9006EE12637D7BEE
:10A0FB00017A067976C003C002C0017BFF7ABC7976
:10A10B0047900833EBF0A3EAF0A3E9F09006EEE0FA
:10A11B00FCA3E0FDA3E0FEA3E0FF90083612637DF5
:10A12B00D001D002D003127AD49007A9E0FEA3E0AD
:10A13B00FFEF7F00FE9007A7E0FCA3E0FDEF2DFDF6
:10A14B00EE3CFCEC125DCD7B337A337953784012C5
:10A15B005C227B007A0079807844125D2B7B007A3D
:10A16B000079207841125D2B7B6F7A127903783A54
:10A17B00125D2B7B007A0079007840125D2B9006E4
:10A18B00F212637D7B017A0679B2C003C002C00173
:10A19B007BFF7ABC794F900833EBF0A3EAF0A3E98D
:10A1AB00F09006F2E0FCA3E0FDA3E0FEA3E0FF903D
:0FA1BB00083612637DD001D002D003127AD4226D
:10CC1100900A00EFF0900A00E0FFEF6401703A7FA4
:10CC21000012C6779006FAE0FFEF70159006FDE45A
:10CC3100F09006FCE4F09006FFE4F09006FA74012F
:10CC4100F090BCC6E493FE740193FF9006FEEFF0F2
:10CC51009006FB74FFF07F012212A02B7BFF7ABCB0
:10CC610079BBC003C002C0017B017A0679FA900941
:10CC71003CEBF0A3EAF0A3E9F0D001D002D003121B
:10CC81004E587F0812D607EF60057F0112D5DA7F73
:02CC910000227F
:10B82F00900A01EFF0900A01E0FFEF6401703B7F97
:10B83F000012C6777BFF7ABC79577D0A7C007F0F99
:10B84F007E0012BF9A7BFF7ABC79687D197C007FDE
:10B85F000F7E0012BF9A7BFF7ABC79797D287C001E
:10B86F007F0F7E0012BF9A12A4BB7F0412D607EF80
:10B87F00700302B91E900781E4F0A37403F09007E0
:10B88F0083E4F0A37401F0900785E4F0A37401F052
:10B89F00900787E4F0A37404F0900789E4F0A37491
:10B8AF000BF090078BE4F0A3740CF090078DE4F08D
:10B8BF00A37404F090078FE4F0A37404F090079141
:10B8CF00E4F0A3741AF0900793E4F0A37402F090DD
:10B8DF000795E4F0A37402F0900797E4F0A3745A6D
:10B8EF00F0900799E4F0A37403F090079BE4F0A3A2
:10B8FF007401F090079DE4F0A37402F09007B2E09A
:10B90F00FFEF4440FF9007B2EFF07F0112D5DA7FCF
:0FB91F000812D607EF60057F0112D5DA7F0022EC
:10BA2700900A02EFF0900A02E0FFEF6401703B7F9B
:10BA37000012C6777BFF7ABC79577D0A7C007F0F9F
:10BA47007E0012BF9A7BFF7ABC79687D197C007FE4
:10BA57000F7E0012BF9A7BFF7ABC79797D287C0024
:10BA67007F0F7E0012BF9A12A4BB7F0412D607EF86
:10BA7700700302BB10900781E4F0A37402F09007F3
:10BA870083E4F0A37401F0900785E4F0A37404F055
:10BA9700900787E4F0A37401F0900789E4F0A3749A
:10BAA70001F090078BE4F0A37402F090078DE4F0A7
:10BAB700A37402F090078FE4F0A37403F09007914A
:10BAC700E4F0A37401F0900793E4F0A3E4F0900787
:10BAD70095E4F0A3E4F0900797E4F0A3E4F090076F
:10BAE70099E4F0A3E4F090079BE4F0A3E4F0900757
:10BAF7009DE4F0A3E4F09007B2E0FFEF4440FF902D
:10BB070007B2EFF07F0112D5DA7F0812D607EF6090
:09BB1700057F0112D5DA7F00223E
:10BB2000900A03EFF0900A03E0FFEF6401703B7F9F
:10BB30000012C6777BFF7ABC79577D0A7C007F0FA5
:10BB40007E0012BF9A7BFF7ABC79687D197C007FEA
:10BB50000F7E0012BF9A7BFF7ABC79797D287C002A
:10BB60007F0F7E0012BF9A12A4BB7F0412D607EF8C
:10BB7000700302BC06900781E4F0A37401F0900703
:10BB800083E4F0A37401F0900785E4F0A37401F05E
:10BB9000900787E4F0A37402F0900789E4F0A3749F
:10BBA00001F090078BE4F0A37402F090078DE4F0AD
:10BBB000A3E4F090078FE4F0A3E4F0900791E4F0A1
:10BBC000A3E4F0900793E4F0A3E4F0900795E4F089
:10BBD000A3E4F0900797E4F0A3E4F0900799E4F071
:10BBE000A3E4F090079BE4F0A3E4F090079DE4F059
:10BBF000A3E4F09007B2E0FFEF4440FF9007B2EFFC
:10BC0000F07F0112D5DA7F0812D607EF60057F01B9
:06BC100012D5DA7F0022CC
:10BD0B00900A04EFF0900A04E0FFEF640160030275
:10BD1B00BDDA7B017A06799EC003C002C0017BFFAE
:10BD2B007ABC798A900833EBF0A3EAF0A3E9F0D060
:10BD3B0001D002D003127AD47B017A0679DAC003E0
:10BD4B00C002C0017BFF7ABC799A900833EBF0A359
:10BD5B00EAF0A3E9F0D001D002D003127AD47B0130
:10BD6B007A06798AC003C002C0017BFF7ABC79AA2C
:10BD7B00900833EBF0A3EAF0A3E9F09007ABE0FEF9
:10BD8B00A3E0FF900836EEF0A3EFF0D001D002D085
:10BD9B0003127AD47F0012C6777B017A06799E7DD7
:10BDAB000A7C007F087E0012BF9A7B017A0679DA43
:10BDBB007D197C007F087E0012BF9A7B017A067981
:10BDCB008A7D287C007F087E0012BF9A12A4BB7F5D
:10BDDB000412D607EF70087F0812D607EF60057FB5
:07BDEB000112D5DA7F0022EE
:1085B00045534300506172616D2045534320004D87
:1085C0006F64653A004C69506F2043656C6C733A78
:1085D000004375744F666620547970653A004375A0
:1085E000744F666620566F6C743A004245432056BD
:1085F0006F6C743A00537461727455702054696DD5
:10860000653A00476F7620506172616D20503A00E4
:10861000476F7620506172616D20493A00415220C7
:1086200054696D653A005265737461727441636395
:10863000656C3A004272616B6520547970653A004E
:108640004272616B6520466F7263653A0054696DD2
:10865000696E673A00526F74617465204469723ABA
:10866000004163746976652046573A004C6F616437
:108670002044656661756C74004572726F720046C5
:10868000697865642057696E67004C696E65544867
:10869000002A456C66476F760053746F476F76000B
:1086A0002A4175746F00256453002A536F66740065
:1086B0004861726400446973002A2530322E3166A5
:1086C00056002530322E316656002A256473002567
:1086D0006473002A2564002564002A2530322E3177
:1086E0006673002530322E316673002A4E6F720099
:1086F00050726F706F7200526576002A25642525CE
:108700000025642525003044656700372E35446513
:1087100067002A31354465670032322E354465677B
:10872000003330446567002A4357004343570045F0
:108730006E61626C6564002A44697300FF85B00055
:108740000000000000000000110000000000000018
:10875000FF85B4FFCC110000000000000000000005
:1087600000000000FF85BF000000000000000100C5
:108770000401078100010502FF85C500000000001B
:1087800000000100060107830001049EFF85D1005F
:10879000000000000000010002010785000104C67E
:1087A000FF85DE0000000000000001000C010787CB
:1087B0000001048AFF85EB000000000000000100BA
:1087C0001F01078900010552FF85F5000000000028
:1087D000000001001601078B000104EEFF86030074
:1087E00000000000000001000901078D0001053EA6
:1087F000FF86100000000000000001000901078F43
:108800000001052AFF861D00000000000000010095
:108810005A010791000104B2FF8626000000000003
:1088200000000100050107930001057AFF8634006E
:10883000000000000000010004010795000105662A
:10884000FF8640000000000000000100640107975F
:10885000000104DAFF864D00000000000000010066
:108860000501079900010516FF865500000000006C
:10887000000001000201079B00010594FF866100D2
:1088800000000000000001000201079D000105A892
:10889000FF866CFFB82F0000000000000000000001
:0488A00000000000D4
:10ADC000900A05EFF0900A05E0FFEF640170457FFF
:10ADD0000012C67790058EE0FFEF70207B017A07A6
:10ADE000797F7D1812C9F0900591E4F0900590E408
:10ADF000F0900593E4F090058E7401F0908747E49D
:10AE000093FE740193FF900592EFF090058F74FF0D
:10AE1000F07F01221240037BFF7A87793CC003C098
:10AE200002C0017B017A05798E90093CEBF0A3EA20
:10AE3000F0A3E9F0D001D002D003124E587F0412E3
:10AE4000D607EF605E900590E0FF75F014EFA42444
:10AE500053F582E5F03487F583E493FB740193FAAC
:10AE6000740293F9EA494B6026900590E0FF75F073
:10AE700014EFA42453F582E5F03487F583E493FBC3
:10AE8000740193FA740293F97D0112D21580149023
:10AE900005937401F090058FE0FFEF4408FF9005E3
:10AEA0008FEFF07F0812D607EF6023900593E0FF45
:10AEB000EFB40115900593E4F090058FE0FFEF44A7
:10AEC00008FF90058FEFF080057F0112D5DA7F0033
:01AED000225F
:104003007B017A07797F7D1812C9F0EF700C900756
:10401300B2E0FFEF20E60302409E9007B2E0FFEF1D
:1040230030E5109007B2E0FFEF4440FF9007B2EF96
:10403300F080689007B2E0FFEF54BFFF9007B2EF44
:10404300F09007B2E0FFEF4420FF9007B2EFF0904B
:104053000A06E4F0900A06E0FFEFC3941850349088
:104063000A06E0FFEF25E0247FF582E43407F583B9
:10407300E0FEA3E0FF900A06E0FDED25E024B3F5A2
:1040830082E43407F583EEF0A3EFF0900A06E00430
:10409300F080C1758C80758A00D28C900781E0FE18
:1040A300A3E0FFC3EF9401EE64809480503C90073B
:1040B30081E0FEA3E0FFD3EF9404EE64809480409C
:1040C300297B017A057902C003C002C0017BFF7A14
:1040D300867979900833EBF0A3EAF0A3E9F0D001F5
:1040E300D002D003127AD40241C4900781E0FEA328
:1040F300E0FFEF64014E70297B017A057902C0036A
:10410300C002C0017BFF7A86797F900833EBF0A36E
:10411300EAF0A3E9F0D001D002D003127AD402412D
:10412300C4900781E0FEA3E0FFEF64024E70287B9A
:10413300017A057902C003C002C0017BFF7A867948
:104143008A900833EBF0A3EAF0A3E9F0D001D002A0
:10415300D003127AD4806A900781E0FEA3E0FFEFD8
:1041630064034E70287B017A057902C003C002C044
:10417300017BFF7A867991900833EBF0A3EAF0A3F1
:10418300E9F0D001D002D003127AD48034900781B1
:10419300E0FEA3E0FFEF64044E70267B017A05790D
:1041A30002C003C002C0017BFF7A8679999008336D
:1041B300EBF0A3EAF0A3E9F0D001D002D003127A26
:1041C300D4900783E0FEA3E0FFC3EF9401EE648085
:1041D3009480503B900783E0FEA3E0FFD3EF940667
:1041E300EE6480948040287B017A04799EC003C0EA
:1041F30002C0017BFF7A867979900833EBF0A3EA5A
:10420300F0A3E9F0D001D002D003127AD4806C90ED
:104213000783E0FEA3E0FFEF64014E70287B017A81
:1042230004799EC003C002C0017BFF7A8679A09007
:104233000833EBF0A3EAF0A3E9F0D001D002D003F6
:10424300127AD480367B017A04799EC003C002C0FF
:10425300017BFF7A8679A6900833EBF0A3EAF0A3FB
:10426300E9F0900783E0FEA3E0FF900836EEF0A3A9
:10427300EFF0D001D002D003127AD4900785E0FE8C
:10428300A3E0FFC3EF9401EE64809480503B90075A
:1042930085E0FEA3E0FFD3EF9402EE6480948040B8
:1042A300287B017A0479C6C003C002C0017BFF7A70
:1042B300867979900833EBF0A3EAF0A3E9F0D00113
:1042C300D002D003127AD4806A900785E0FEA3E07F
:1042D300FFEF64014E70287B017A0479C6C003C0E6
:1042E30002C0017BFF7A8679AA900833EBF0A3EA38
:1042F300F0A3E9F0D001D002D003127AD480349035
:104303000785E0FEA3E0FFEF64024E70267B017A8F
:104313000479C6C003C002C0017BFF7A8679B090DE
:104323000833EBF0A3EAF0A3E9F0D001D002D00305
:10433300127AD4900787E0FEA3E0FFC3EF9401EE67
